:020000040800F2
:10000000000001204D6200083165000835650008D8
:10001000396500083D6500084165000891650008E4
:1000200091650008916500089165000891650008D8
:100030009165000891650008916500084D6F000802
:100040009165000891650008916500084D60000801
:1000500091650008916500089165000891650008A8
:100060009165000891650008916500089165000898
:100070009165000891650008916500089165000888
:1000800091650008916500080966000891650008FF
:100090009165000891650008916500089165000868
:1000A00095710008B9710008DD710008157200082B
:1000B00069720008D972000849730008F16C0008E1
:1000C000096D0008FD6C0008156D000891650008B9
:1000D000916500084176000895760008E9760008E9
:1000E000916500089560000891650008717400082A
:1000F00095740008B9740008F17400085966000886
:100100009165000891650008B973000891650008C1
:100110003D77000891770008297400084D740008A5
:1001200091650008916500089165000891650008D7
:1001300010B5054C237833B9044B13B10448AFF321
:1001400000800123237010BD9819002000000000DA
:100150003410010808B5064B1BB106480649AFF339
:1001600000800648036813B1054B03B1984708BDEA
:1001700000000000341001089C190020981900208C
:1001800000000000012902D11C30C0B270470629CE
:1001900084BF01F1FF31C9B211F0010F14BF1E205D
:1001A0001F207047444B2DE9F047B1FBF3F603FBEA
:1001B00016113C23B1FBF3F203FB12120546027049
:1001C0004FF46160B1FBF0F200FB1211B1FBF3F3ED
:1001D0006B704FF4FA63AA70B6B2EB80EC884FF400
:1001E000C873B4FBF3F803FB18481FFA88F8B8F19A
:1001F000000F16D06423B4FBF3F203FB12439BB24F
:10020000002B53D014F0030140F26D130CBF4FF4D8
:10021000B7721A4696420EDB002908BF4FF4B77337
:1002200004E0B6F5B77F06DB4FF4B773F61A013476
:10023000B6B2EC80D2E700236B716423B4FBF3F712
:1002400003FB1747BFB2B8F1000F06D03FB114F05F
:10025000030F14BF0020012002E0012000E0384617
:1002600095F80590C0B24946FFF78CFF864209F128
:10027000010A15D3B8F1000F06D03FB114F0030FF7
:1002800014BF0020012002E0012000E03846C0B287
:100290004946FFF777FF301A86B285F805A0D2E706
:1002A00001362E7185F805A0BDE8F087B6F5B67F5A
:1002B000C1DD40F26D13B9E780510100F8B5427815
:1002C00087783C2303FB072702780579467903FBEF
:1002D0000727013D013EEDB2F6B2044605714671B5
:1002E000013E731CE38834D04FF4C872B3FBF2F1C3
:1002F00002FB113292B262B16422B3FBF2F002FB54
:10030000103080B230B113F0030F14BF0020012071
:1003100000E00120C0B2F1B2FFF734FF284485B2FB
:10032000DEE74FF4C872B3FBF2F102FB113292B276
:10033000AAB16422B3FBF2F102FB113292B28AB18C
:1003400013F0030F40F26D1208BF4FF4B77215445B
:10035000ADB2013B9BB2B3F5FA6FE2D205E04FF4C8
:10036000B772F4E740F26D12F1E7024800FB057046
:10037000F8BD00BF8051010010B504462CB14FF408
:100380007A7008F0D3F8013CF8E710BD10B51721DA
:1003900004461622024802F041FC204610BD00BF70
:1003A000B819002070B50F4C0E4640F4A001054668
:1003B000C1F30741204602F0C4FCC5F307212046E3
:1003C00002F0D0FCE9B2204602F0CCFC31462046D7
:1003D00002F0C8FC204602F0C0FCBDE870400520D9
:1003E000FFF7CABFB819002070B5114C40F4A00641
:1003F000C6F3074605463146204602F0A2FCC5F387
:100400000721204602F0AEFCE9B2204602F0AAFC29
:10041000204602F0A2FC20463146012202F0A6FC52
:10042000207A20B12046BDE8704002F0ADBC70BD1E
:10043000B81900200148FFF7A9BF00BFB419002078
:10044000002870B503DA01241C70404201E000244A
:100450001C7042F20F73984202DD99230B701DE06D
:100460004FF47A750E4B90FBF5F503FB05036424FE
:1004700093FBF4F404F00F0646EA05150D70E4B2A0
:100480006FF0630101FB04340A2390FBF3F103FBDB
:10049000110094FBF3F4E4B240EA0413137070BD4E
:1004A00018FCFFFF0A22B0FBF2F302FB130040EA44
:1004B0000310C0B270470000D30770B548BF0132C7
:1004C0000024520802312346E5B2954225D211F8A4
:1004D000025CA5F14106F6B2052E02D8104B9B5DD9
:1004E00005E0303DEDB2092D03D80E4B5B5D1B01DD
:1004F000DBB211F8015CA5F14106F6B2052E01D878
:10050000074D04E0303DEDB2092D02D8054E755D72
:100510002B43035502310134D6E7002070BD00BFE4
:10052000322A0108282A01082DE9F04781460F46A2
:1005300092460BF0E3FC0023C0B21D46DEB219F870
:1005400006402E2C0FD02C2C05D1013EC8EB060600
:100550008AF8006008E014B97C55BDE8F0876A1C91
:100560007C55D5B200E0B0460133DAB28242E5D91B
:10057000BDE8F0872DE9F04F824687B00846144663
:10058000994609F037FBC9EB0406CDE90001304676
:1005900009F01EFB02460B4600204D4908F0DAF830
:1005A00002460B46DDE9000109F0FEFD30B94FF0CF
:1005B000020896FBF8F80546013E07E05046002188
:1005C000224607B0BDE8F04F0BF034B8454536DAA7
:1005D000304609F0FDFA02460B4600203C4908F07F
:1005E000B9F8CDE90201701E09F0F2FA02460B4695
:1005F0000020374908F0AEF8DDE90223CDE9040117
:10060000DDE9000109F074FC09F0E2FDDDE90423F5
:100610000A2790FBF7FB0BFB17004FEA001BDDE9F5
:10062000000109F065FC09F0D3FD90FBF7F303FB33
:10063000170083440AF805B0023E0135C6E709EB0E
:1006400048094FF0020BC4EB090994FBFBFB09F1CD
:100650000109D84538DA484609F0BAFA02460B468D
:1006600000201B4908F076F8064609F101000F4604
:1006700009F0AEFA02460B460020154908F06AF868
:1006800032463B4604460D46DDE9000109F006FB13
:1006900009F09EFD0A2690FBF6F707FB16002B4695
:1006A00007012246DDE9000109F0F8FA09F090FDA2
:1006B00090FBF6F303FB160007440AF8087009F1F3
:1006C000020908F10108C4E707B0BDE8F08F00BFD8
:1006D000000024402DE9F84307460D46904601EB03
:1006E00003090C464C4507D0C5EB08032046195DAD
:1006F000BE68B0470134F5E7BDE8F8832DE9F04165
:1007000006460D46174601EB03080C46444506D045
:100710002046F16888477B1B18550134F6E7BDE891
:10072000F081016800F110021023FFF7D3BF0168C8
:1007300000F110021023FFF7E1BF8160C260704733
:1007400010B5016010314160DB21017400210446C5
:1007500041618361C261FFF7E4FF207CDB3818BF91
:10076000012010BD08B5016010314160FFF7DFFFC7
:10077000002008BD10B583694468013903FB0141BD
:10078000FFF7A8FF002010BD10B559B14369994289
:1007900008D883694468013903FB0141FFF7AEFFC4
:1007A000002010BD022010BD38B543690A46591C0F
:1007B000C3690446A3F110058369B5FBF3F39942BD
:1007C00007D84161FFF7D6FF2046FFF7AAFF0020B8
:1007D00038BD032038BD4069704710B50446FFF7A7
:1007E000A6FF20462168E269A369BDE81040FFF733
:1007F000A7BF436910B501333B2B01DC43610BE01C
:100800000269002301323B2A436101DC026103E0FB
:100810000361C3680133C360C36803F10802172A88
:1008200001DCC26010BD103BC3604368826823F0E6
:10083000040101320229826005D0042B03D023F089
:100840000201092901D11E2A00E01F2A03DD01222D
:100850001344826043600368826813F0030F16D16B
:100860004FF4C87193FBF1F401FB143129B16421F9
:1008700093FBF1F401FB143149B11D2A09DD4268F3
:10088000022A06D1012282600322426001E01C2A72
:10089000F4E742680C2A03DD0C3A0133426003603E
:1008A00010BD10B58B68044607F090FC204610BDC3
:1008B00070B58CB004460D4603A8264907F0E2FA4D
:1008C0002046002107F018FC03784E2B07D1204664
:1008D000012107F011FC03784F2B00F08F811E4996
:1008E00006A807F0CFFA06A9204607F048FC002228
:1008F0000346214609A807F069FC09A903A807F0E7
:100900000EFB09A807F07CFA06A807F079FA03A8FD
:1009100007F031FD104906A807F0B4FA06A92046F1
:1009200007F02DFC2146421C09A8FFF7BAFF09A9D0
:10093000204607F0F4FA09A807F062FA06A807F0C3
:100940005FFA2046002107F0D7FB03782D2B05D155
:10095000012604E0522D0108762D0108002685F8B5
:100960005260A94906A807F08DFA06A9204607F0AB
:1009700006FC32460346214609A807F027FC09A9D0
:1009800003A807F0CCFA09A807F03AFA06A807F07E
:1009900037FA059A0023013205F1310103A807F067
:1009A000B9FB03A807F0ECFC9749E86106A807F03B
:1009B00069FA06A9204607F0E2FB2146421C09A875
:1009C000FFF76FFF09A9204607F0A9FA09A807F069
:1009D00017FA06A807F014FA0021204607F08CFB4E
:1009E000037889492D2B0CBF0126002685F851601C
:1009F00006A807F047FA06A9204607F0C0FB3246D2
:100A00000346214609A807F0E1FB09A903A807F05E
:100A100086FA09A807F0F4F906A807F0F1F9059A93
:100A20000023013205F1210103A807F073FB03A89D
:100A300007F0A6FC7449A86106A807F023FA06A9E6
:100A4000204607F09CFB2146421C09A8FFF729FF1E
:100A500009A9204607F063FA09A807F0D1F906A80A
:100A600007F0CEF9684906A807F00CFA06A9204657
:100A700007F085FB00220346214609A807F0A6FBE4
:100A800009A903A807F04BFA09A807F0B9F906A8C5
:100A900007F0B6F903A807F06EFC5B49C5F88000C3
:100AA00006A807F0EFF906A9204607F068FB2146E3
:100AB000421C09A8FFF7F5FE09A9204607F02FFA06
:100AC00009A807F09DF906A807F09AF94E4906A86B
:100AD00007F0D8F906A9204607F051FB002203468B
:100AE000214609A807F072FB09A903A807F017FA25
:100AF00009A80A2607F084F906A807F081F932460A
:100B0000002168460AF096FD03A8694609220023E1
:100B100007F000FB9DF800309DF80120303B06FBFC
:100B2000032303F5F4632B609DF803209DF8043044
:100B3000303A303B06FB02339DF806206B609DF88F
:100B40000730303A303B06FB02332F49AB6006A832
:100B500007F098F906A9204607F011FB2146421C30
:100B600009A8FFF79EFE09A9204607F0D8F909A8B1
:100B700007F046F906A807F043F9234906A807F04D
:100B800081F906A9204607F0FAFA00220346214619
:100B900009A807F01BFB09A903A807F0C0F909A8D9
:100BA00007F02EF906A807F02BF90021092209A861
:100BB0000AF040FD03A80922002309A907F0AAFAB8
:100BC0009DF824209DF82530303A303B06FB023357
:100BD0009DF82720EB609DF82830303A303B06FB2B
:100BE00002339DF82A202B619DF82B30303A303BA0
:100BF00006FB023628466E61FFF7FBFD03A807F0EF
:100C0000FFF80CB070BD00BF762D010870B58EB036
:100C100004460D4601A88E4907F034F9204600210C
:100C200007F06AFA0378312B06D12046022107F03B
:100C300063FA0378312B01D0002446E2854907A8E6
:100C400007F020F907A90022204607F089FA0AAE2A
:100C5000421C21463046FFF724FE3146204607F06D
:100C60005EF9304607F0CCF807A807F0C9F87949D3
:100C700007A807F007F907A90022204607F070FA35
:100C80002146421C3046FFF70CFE3146204607F055
:100C900046F9304607F0B4F807A807F0B1F86D49F7
:100CA00007A807F0EFF807A90022204607F058FA36
:100CB000002203462146304607F088FA314601A853
:100CC00007F02DF9304607F09BF807A807F098F8D1
:100CD000039A002301A83146013207F01BFA0023D2
:100CE000F25C303AF25401330E2BF9D19DF82930E1
:100CF000642253439DF828104FF47A7202FB0132AC
:100D00009DF82A100A2303FB01229DF82B1004A84A
:100D10000A44EA629DF82C109DF82D2003FB012265
:100D20009DF82E102A639DF82F2003FB01229DF8C9
:100D300030106A639DF8312003FB01229DF83210C8
:100D4000AA639DF8332003FB01229DF83410EA6367
:100D50009DF8352003FB01233E492B6407F092F8F0
:100D600004A90022204607F0FBF92146421C07A8EF
:100D7000FFF797FD07A9204607F0D1F807A807F06D
:100D80003FF804A807F03CF82046002107F0B4F92A
:100D900003782D2B0AD101262E4985F8286004A856
:100DA00007F070F8204604A9002209E0002629492E
:100DB00085F8286004A807F065F8204604A93246A3
:100DC00007F0CEF932460346214607A807F0FEF9A0
:100DD00007A901A807F0A3F807A807F011F804A8CD
:100DE00007F00EF8039A0023013205F1080101A86B
:100DF00007F090F901A807F0C3FA1649286004A883
:100E000007F040F804A90022204607F0A9F921467E
:100E1000421C07A8FFF745FD07A9204607F07FF809
:100E200007A806F0EDFF04A806F0EAFF204600211F
:100E300007F062F903782D2B0ED10126054985F8BC
:100E4000296004A807F01EF8204604A900220DE03E
:100E5000522D0108762D010800269F4985F829604A
:100E600004A807F00FF8204604A9324607F078F9E5
:100E700032460346214607A807F0A8F907A901A8AA
:100E800007F04DF807A806F0BBFF04A806F0B8FF6E
:100E9000914904A806F0F6FF04A90022204607F0B5
:100EA0005FF900220346214607A807F08FF907A93A
:100EB00001A807F034F807A806F0A2FF04A806F07E
:100EC0009FFF039A0023013205F1180101A807F0E2
:100ED00021F901A807F054FA7F49686004A806F0D8
:100EE000D1FF04A90022204607F03AF92146421C0E
:100EF00007A8FFF7D6FC07A9204607F010F807A8B7
:100F000006F07EFF04A806F07BFF734904A806F0F4
:100F1000B9FF04A90022204607F022F90022034667
:100F2000214607A807F052F907A901A806F0F7FF24
:100F300007A806F065FF04A806F062FF039A0023E5
:100F4000013205F1500101A807F0E4F801A807F00B
:100F500017FA08F04FFEC5E912015F4904A806F030
:100F600091FF04A90022204607F0FAF82146421C0E
:100F700007A8FFF796FC07A9204606F0D0FF07A8B0
:100F800006F03EFF04A806F03BFF534904A806F014
:100F900079FF04A90022204607F0E2F80022034668
:100FA000214607A807F012F907A901A806F0B7FF24
:100FB00007A806F025FF04A806F022FF039A0023E5
:100FC000013205F1640101A807F0A4F801A807F0B7
:100FD000D7F94149286604A806F054FF04A9002265
:100FE000204607F0BDF82146421C07A8FFF759FC30
:100FF00007A9204606F093FF07A806F001FF04A802
:1010000006F0FEFE344904A806F03CFF04A90022C5
:10101000204607F0A5F800220346214607A807F05E
:10102000D5F807A901A806F07AFF07A806F0E8FEA0
:1010300004A806F0E5FE039A01A805F17801013243
:10104000002307F067F801A807F09AF908266867F7
:10105000214904A806F016FF04A90022204607F043
:101060007FF82146421C07A8FFF71BFC07A9204672
:1010700006F055FF07A806F0C3FE04A806F0C0FE60
:10108000013EE5D1144904A806F0FCFE204604A95F
:10109000324607F065F832460346214607A807F0B6
:1010A00095F807A901A806F03AFF07A806F0A8FEE0
:1010B00004A806F0A5FE01A807F05DF985F88800F0
:1010C00005F12C00FFF795FB012401A806F098FE1E
:1010D00020460EB070BD00BF762D010810B5FF236D
:1010E00001441A46884208D010F8014B5440044A83
:1010F000125D5A40034B1B5DF4E743EA022010BD2A
:101100000C0000200C01002008B51A4B06201A68BC
:10111000022122F0E06242F000721A6007F04AF900
:101120000720022107F046F91920002107F042F9B3
:101130001820002107F03EF90520002107F03AF9B8
:101140000820002107F036F90420002107F032F9C9
:101150001520002107F02EF92520032107F02AF998
:101160001120032107F026F9BDE8084005200021E1
:1011700007F086B9040001401520002107F080B96E
:101180001520012107F07CB92DE9F041431E86B0FE
:10119000642B044600AF04D810F0010F08BF0B24E5
:1011A00000E00B24A3000A3323F00703ADEB030D8B
:1011B00004F1FF386D460026252007F03DF945F87B
:1011C00026000136F3B2A342F6D300210022D3B2A7
:1011D00043450CDA5E1C55F823E055F82600013231
:1011E000864584BF45F826E045F82300EFE7013146
:1011F000CBB2A342EAD30134641055F8240009F0BD
:1012000035F908F0F7FC18A3D3E9002308F046FDF0
:1012100009F026F8164909F081F909F0F5FA15499F
:101220000446384606F02EFE394607F10C0006F05B
:101230006CFE214607F10C0006F02AFF0E4906F06D
:1012400015FF01460D4806F0D1FC07F10C0006F031
:10125000D7FD384606F0D4FD20461837BD46BDE818
:10126000F08100BFAFF300800F0BB5A679C7E93F4F
:101270000000C040382A01084B2A0108501E0020F7
:1012800008B50021042007F0FBF84FF47A7007F04E
:101290003FF90420012107F0F3F8BDE808404FF4BE
:1012A000FA7007F035B9000008B5032004F0AEFE6F
:1012B0000348044906F0A4FCBDE8084005F06ABDF7
:1012C000501E00204E2A010838B5074C054620461E
:1012D00004F0B9FD054B42195D6020460449BDE8A4
:1012E000384004F0B2BD00BFC8190020A41C002083
:1012F000A91200080148112104F099BDC819002065
:1013000070470120704701207047000070B5094DFB
:10131000094C064622782978084801F07FFC287895
:10132000012107F0ADF82078012107F0A9F8304637
:1013300070BD00BF0C0200200D020020781A0020B2
:1013400010B5064C204601F0FCFC204601F005FDDE
:10135000D0F1010038BF002010BD00BF781A002076
:1013600010B54A2104460548FFF7EAFF28B1236873
:1013700020461B6801219847012010BD881A0020D3
:1013800070B5094C154620461E4601F0DAFC294688
:10139000204601F0E7FC2046314601F0E3FC204600
:1013A000BDE8704001F0D9BC781A0020F8B51348A8
:1013B00014461E460F469DF8185001F0C2FC214607
:1013C0000E4801F0CFFC0D4801F0C7FC0B4CA5B155
:1013D0002A462046394601F0C9FC0022237A551CD2
:1013E00033B10648D7B201F0CFFC2A46F055F5E7F5
:1013F0000248BDE8F84001F0B0BCF8BD781A002002
:10140000F0B51C4685B0012300930DF10F0315467E
:1014100007460E46FFF7CAFF9DF80F309DF82820BB
:1014200023EA040314402343384631462A468DF804
:101430000F30FFF7A5FF05B0F0BD000013B5002485
:1014400071B1012213460B484A210094FFF7D8FFDF
:101450004A210094074802224023FFF7D1FF802150
:10146000009104484A2102228023FFF7C9FF02B0FD
:1014700010BD00BF881A002008B51E220F481F218A
:1014800001F0CCFB38210D4801F05BFC06210B4834
:1014900001F068FC094801F060FC4FF4FA7007F0B5
:1014A00037F80748FFF75CFF10B10648064901E02E
:1014B00004480649BDE8084006F0A2BB681B0020AE
:1014C000D4190020501E0020D82A0108F12A010852
:1014D00070B5084C054620460E4600F0E3FC09F0C6
:1014E00093F93060642007F013F8204600F0ECFC1C
:1014F000286070BD8C1A0020F0B5334C85B00546CD
:101500000E46FFF7B9FF39210122204601F02EFCDB
:10151000012006F0FDFF277A1FB1204601F034FCC0
:10152000074638210122284801F020FC012006F05E
:10153000EFFF207A10B1244801F026FC40EA072092
:1015400008F036FB1EA3D3E9002308F0A7FB08F040
:1015500067FE1E4930601E4806F037FB31680A22DC
:101560001B4806F0ECFB022300931A4803AB4A2108
:101570000322FFF71BFF9DF80D209DF80C3002F0B1
:101580000F0242EA03122D21D2B24A431B0902FA8A
:1015900003F34FF47A72B3FBF2F32B600E490C485D
:1015A00006F013FB29680A22094806F0D2FB0B4912
:1015B000074806F025FB05B0F0BD00BFAFF3008083
:1015C0000AD7A3703D0A773F681B00200A2B010849
:1015D000501E0020881A0020102B0108272B01081C
:1015E00008B50348FFF792FE024A034B1A6008BD94
:1015F000881A0020702A0108D4190020F0B5424A48
:101600008DB00E4607465168106801AB03AD03C3A9
:101610000CAC0922002128460AF00CF804F82C6DC5
:1016200020460621FFF75AFD030A8DF80B003748C4
:101630008DF80A30036821469B68082298474FF4CA
:10164000967006F065FF0024304806F061F9002826
:10165000E6B20DDD082C05D12D482E4906F0D0FA52
:10166000002605E0294806F0FFF828550134EBE78D
:101670002748294906F0C4FA002E31D127492448C9
:1016800006F0BEFA2449224806F0BAFA2846052197
:10169000FFF724FD9DF811209DF8123043EA022344
:1016A00083422BD19DF810309DF80F401C4906A8AD
:1016B00043EA042406F0E6FB06A909A806F025FC87
:1016C000214609A806F0E4FC0146114806F08EFA0E
:1016D00009A806F095FB06A806F092FB3C6011E015
:1016E0000024B442CAD2295D1022094806F015FB35
:1016F00007480C4906F069FA0134F2E704480A4940
:1017000006F07EFA0DB0F0BD902A0108801E002080
:10171000501E00202C2B01084D2B0108522D0108D2
:10172000692B010825360108742B01082DE9F043C7
:101730000F464F4987B0804608684968164603AD92
:1017400001AA994603C206AC0A220021284609F0E4
:1017500071FF04F8149D20460621FFF7BFFC030A21
:101760008DF80B0043488DF80A30036821469B68CA
:10177000082298474FF4967006F0CAFE00243D48B0
:1017800006F0C6F800285FFA84F90EDD092C06D1B0
:1017900039483A4906F034FA4FF0000905E0354877
:1017A00006F062F828550134E9E73348344906F079
:1017B00027FAB9F1000F14D132492F4806F020FA68
:1017C0002D482F4906F01CFA9DF80C30BBB90DF1DD
:1017D0000D000721FFF782FC9DF814209DF81530BD
:1017E00015E000244C45E7D2295D1022224806F07E
:1017F00094FA2148244906F0E8F90134F2E7284632
:101800000721FFF76BFC9DF813209DF8143043EA85
:10181000022383421CD19DF80C209DF810009DF8F6
:1018200011409DF8123032B944EA00209DF813406F
:1018300044EA032405E09DF80F2043EA042440EA2B
:10184000022008F013FE114908F01CFFE30B07E02B
:1018500009480F4906F0D4F90E4800234FF6FF74EB
:10186000C8F800003C60337007B0BDE8F08300BFEB
:10187000982A0108801E0020501E0020942B010889
:10188000B52B0108522D0108253601080000204122
:10189000D12B010800FF7F472DE9F0410F463B495E
:1018A00086B080460868496801AB03AD03C306AC47
:1018B000164600210A22284609F0BCFE04F8146DE1
:1018C00020460621FFF70AFC030A8DF80B0030487A
:1018D0008DF80A30036821469B68082298474FF428
:1018E000967006F015FE0024294806F011F800282D
:1018F000E6B20DDD092C05D12648274906F080F90E
:10190000002605E0224805F0AFFF28550134EBE73B
:101910002048224906F074F91EBB21491D4806F0F3
:101920006FF91E491B4806F06BF928460721FFF79F
:10193000D5FB9DF813209DF8143043EA022383421F
:101940001DD19DF80F209DF810309DF8111043EA2D
:1019500002239DF8122042EA0122C8F800203B60D1
:1019600011E00024295D10220A4806F0D6F901345E
:1019700008480C4906F029F9092CF3D1CDE70548B0
:10198000094906F03DF906B0BDE8F081A02A01083A
:10199000801E0020501E00200D2C0108312C010853
:1019A000522D010825360108502C010830B50121BF
:1019B00087B0B24C082006F063FD40F2DC5006F020
:1019C000A7FD04F18C0204F1880104F19000FFF7F7
:1019D0007FFD4FF4FA7006F09BFD04F1940104F1D1
:1019E0008000FFF789FD4FF4FA7006F091FD0123A6
:1019F00004F1280104F12C0204F12400FFF796FE03
:101A00004FF4FA7006F084FD012204F1340104F170
:101A10003000FFF741FF4FF4FA7006F079FD04F152
:101A200038000221FFF7EAFD0021082006F028FD1A
:101A3000934804F008FA934D01462846FEF7B2FB9E
:101A4000EB88914963616B79904823612B79E3605E
:101A5000AB78A3606B7863602B78236006F0D0F8D6
:101A600068468B4906F00EFA694603A806F04DFA5F
:101A7000D4F8881003A806F00BFB864906F0F6FAA6
:101A80000146824806F0B2F803A806F0B9F96846A4
:101A900006F0B6F96846804906F0F4F9694603A8ED
:101AA00006F033FAD4F8901003A806F005FB7B4942
:101AB00006F0DCFA0146754806F098F803A806F02F
:101AC0009FF9684606F09CF96846754906F0DAF910
:101AD000694603A806F019FAD4F8801003A806F0A6
:101AE000E1FA704906F0C2FA0146684806F07EF84D
:101AF00003A806F085F9684606F082F968466A4947
:101B000006F0C0F9694603A806F0FFF9D4F894106E
:101B100003A806F0BDFA654906F0A8FA01465B483D
:101B200006F064F803A806F06BF9684606F068F959
:101B300068465F4906F0A6F9694603A806F0E5F98C
:101B4000A36A0A21B3FBF1F103A806F0A1FA5149F7
:101B500006F08CFA01464D4806F048F803A806F056
:101B60004FF9684606F04CF96846524906F08AF982
:101B7000694603A806F0C9F9616A03A806F09CFA51
:101B8000464906F073FA0146404806F02FF803A8CC
:101B900006F036F9684606F033F96846464906F01D
:101BA00071F9694603A806F0B0F9616B03A806F065
:101BB0006FFA424906F05AFA0146344806F016F820
:101BC00003A806F01DF9684606F01AF968463C4974
:101BD00006F058F9694603A806F097F9216B03A8A7
:101BE00006F056FA374906F041FA0146274805F053
:101BF000FDFF03A806F004F9684606F001F96846FF
:101C0000314906F03FF9694603A806F07EF9A06B5A
:101C100008F02CFC2D4908F035FD014603A806F01C
:101C20004BFA2B4906F022FA0146184805F0DEFF70
:101C300003A806F0E5F8684606F0E2F812491348F2
:101C400005F0DEFF72B64FF4A0612248FEF78AFD70
:101C50002048FEF7C0FD62B650B11F4B1B6898428A
:101C600006D203F0A5FF04F009F81C4B01221A74F8
:101C70000549064805F0C4FF07B030BDD81900205B
:101C8000C8190020CA190020522D0108501E00203A
:101C9000A12C0108802C0108B52C0108852C010815
:101CA0008A2C0108272B0108902C0108952C01088B
:101CB0009B2C0108AF2C0108C02C0108CD2C010879
:101CC000D32C0108E02C0108E72C01080000C842D1
:101CD00025360108D01D002018020020A41C002079
:101CE0002DE9F84300240F469046994625464C4579
:101CF00013DA5FFA88F60121304606F0C1FB0A20AC
:101D000006F006FCF8B206F0A5FB002100EB450545
:101D1000304606F0B5FB0134E9E72846BDE8F88314
:101D200070B5D4B21D46EDB20E462046002106F035
:101D300041FB2846002106F03DFB2046012106F02C
:101D40009FFB2846012106F09BFB2046002106F060
:101D500097FB2846002106F093FB2846012106F058
:101D60008FFB2046012106F08BFB2846002106F060
:101D700087FBF3B201222046294606F097FB28464E
:101D8000012106F07DFB2046022106F013FB2046D0
:101D900006F060FB2846002106F072FB2046BDE8F5
:101DA000704006F057BB38B5CDB22846022106F088
:101DB00001FB64240A2006F0ABFB284606F04AFB30
:101DC00008B1013CF6D138BD2DE9F843CCB2154637
:101DD00080460E46EFB22046022106F0EBFA384666
:101DE000002106F0E7FA2A46082331464046FFF76D
:101DF00077FF00214FEA0029204606F0DBFA204653
:101E0000012106F03DFB2046002106F039FB384653
:101E1000012106F035FB3846002106F031FB204653
:101E2000022106F0C7FA404631462A460823FFF74A
:101E300057FF49EA0000BDE8F88338B51446CDB233
:101E4000E4B22846002106F0B5FA2046002106F04B
:101E5000B1FA2846012106F013FB2046012106F0C5
:101E60000FFB20460021BDE8384006F009BB38B51D
:101E700090E80C0004460321FFF752FF204621683A
:101E8000FFF791FF94E806002046FFF79DFF94E8D6
:101E9000060005462046FFF7D0FF284608F0EAFA7C
:101EA00038BD000008B5FFF7E2FF08F087FC08F036
:101EB000E1FA034908F032FB024908F025FA08BDAF
:101EC0000AD7233C00002042F8B590E80C000446F5
:101ED0000521FFF725FF20462168FFF764FF94E8FE
:101EE00006002046FFF770FF94E8060005462046EE
:101EF000FFF7A3FF284608F0BDFA1E49064608F082
:101F00000DFB4FF0814108F0FFF91B4905463046B3
:101F100008F004FB314608F001FB0146284608F0B2
:101F2000F5F907462046FFF7BDFF07F063FE0022E4
:101F3000124B07F0FFFC04460D463046104908F0EE
:101F4000EDFA104908F0E2F907F054FE02460B469C
:101F50002046294607F0A2FE044638460D4607F003
:101F600049FE02460B462046294607F0E5FC08F0EC
:101F700077F9F8BD54E3253DA2E73BB600003940B0
:101F8000ACC5A7380AD7233C024B1D211C2283E88D
:101F9000060070478C1A002013B5026802AB03F8E4
:101FA000011D546A19460122A04702B010BD07B5B1
:101FB00003680DF107019B6A0122984701280CBFB5
:101FC0009DF807004FF0FF3003B05DF804FB4FF0C1
:101FD000FF30704708B50369186803689B69984724
:101FE00008BD036810B5DB680446984708B9207F30
:101FF00010BD012010BD08B503681B6B9847003069
:1020000018BF012008BD0000F0B585B00C4606469B
:10201000194901A81746194D05F034FF01A81021F0
:1020200005F00CFF217901A805F0CAFF294601A897
:1020300005F0AAFF617901A805F0C2FF294601A8B1
:1020400005F0A2FFA17901A805F0BAFF294601A871
:1020500005F09AFFE17901A805F0B2FF3368019914
:102060001B6A3A4630469847044601A805F0C8FE68
:10207000204605B0F0BD00BF522D0108D136010841
:1020800008B50B4B1920197881F00101197006F081
:10209000F7F9084B1A680132B2F5967F01D21A603F
:1020A00008BD00221A6072B6BDE8084004F072BE96
:1020B000A01A0020641B002010B5044620680368A5
:1020C000DB68984710B906F023FAF7E72068036841
:1020D0001B6998472C28F1D1012010BD2DE9F04F44
:1020E000054687B08A46104640211E461446129F78
:1020F00005F0A4FE8F4BD3F800B0002006F008FADC
:1021000028680368DB689847002840F3E480286863
:1021100003681B699847011EF2DD2046C9B205F02D
:1021200042FF16B9109BA3B910E0314603A805F091
:10213000A9FE204603A905F0C9FF814603A805F0C2
:102140005FFEB9F1000FEDD00120EFE0119B9BB9CC
:1021500010E0109903A805F095FE204603A905F0AC
:10216000B5FF814603A805F04BFEB9F1000FEDD095
:102170000220DBE0A7B910E0119903A805F082FE68
:10218000204603A905F0A2FF814603A805F038FE0A
:10219000B9F1000FEED00320C8E0139B0BBB10E099
:1021A000394603A805F06EFE204603A905F08EFF10
:1021B000814603A805F024FEB9F1000FEDD00420FC
:1021C000B4E05D4903A805F05DFE204603A905F0D3
:1021D0007DFF814603A805F013FEB9F1000F11D170
:1021E00039E0139903A805F04DFE204603A905F038
:1021F0006DFF814603A805F003FEB9F1000FE0D0A2
:10220000052093E0684629682C2205F0D1FD684638
:1022100006F0B1F80128814615D129680A2203A8E1
:1022200005F0C6FD03A806F0A6F8804603A805F051
:10223000E7FD2046414905F07AFE05EB88035B681F
:1022400083F81D9003E02046694605F098FE684635
:1022500005F0D6FD54E73A4903A805F013FE2046E1
:1022600003A905F033FF804603A805F0C9FDB8F1C6
:10227000000F3FF445AF334903A805F003FEA26801
:1022800003A9083A204605F07DFF804608F10208C0
:1022900003A805F0B5FD42462C21204605F052FF6B
:1022A00042460346214603A805F090FF03A806F026
:1022B00062F8804603A805F0A3FDB8F1000F3FF4D3
:1022C0001FAF05EB88035B68204683F81C901B4911
:1022D00005F02DFE14E7174B1B68CBEB03035345AA
:1022E000FFF40BAF204606F01CF8A368CBB12146E3
:1022F000684605F00AFE1449144805F066FC2021E2
:10230000124805F05DFC694603A805F0FEFD03A92F
:102310000E4805F06BFC03A805F072FD684605F059
:102320006FFD2046054905F002FE0020C0B207B04F
:10233000BDE8F08FAC1F00203D2D0108522D010893
:102340004A2D0108502D0108532D0108501E002070
:10235000F0B589B01C4607460E4605A80B49154640
:1023600005F090FD00940E9C314601940F9C05AA47
:102370000294109C2B4603943846FFF7AFFE0446A8
:1023800005A805F03DFD204609B0F0BD522D01081D
:10239000F0B5044685B00E46006821491F46154633
:1023A00005F013FC20681F4905F00FFC0A2239468E
:1023B000206805F0B2FC20682C2105F001FC2068A3
:1023C000194905F002FC2068184905F0FEFB31466A
:1023D000206805F0FAFB2068154905F0F6FB0A2293
:1023E0002946206805F078FC1249206805F0EDFBCD
:1023F000206803689B699847002006F089F80E4B17
:10240000204600930023019302930C490C4A0D4B84
:10241000FFF79EFF431E5842584105B0F0BD00BF74
:10242000622D0108652D0108702D0108673501082E
:10243000752D0108502D0108942D0108F824010084
:10244000782D0108852D010870B5044600200E4640
:10245000154606F05DF80023C4F8A430C4F8A03097
:10246000206931462A46237DFFF792FF003018BFCE
:102470000120207770BD7FB5089C0E460194099C11
:102480001546009302944FF47A7132462B46FFF7BB
:102490005FFF04B070BD000008B50D48012105F0D4
:1024A000F9FA1920002105F0EBFF1820002105F0B2
:1024B000E7FF0021052005F0E3FF012004F078FC90
:1024C000012004F08FFCBDE8084004F077BC00BF99
:1024D000481F002008B50B20FEF756FE40F6E343E8
:1024E000984208D81C491D4805F08AFB642006F074
:1024F0000FF8FFF7D1FF03F01FF840B9184917484C
:1025000005F07EFB642006F003F8FFF7C5FF02F03C
:1025100073FC40B91349114805F072FB642005F0C3
:10252000F7FFFFF7B9FF01F077FF50B10E490B48F5
:1025300005F066FB642005F0EBFFBDE80840FFF7FF
:10254000ABBF0A49054805F05BFB642005F0E0FFDE
:10255000BDE8084004F01EBCA62D0108501E002056
:10256000C82D0108022E0108422E0108862E0108FE
:1025700010B5072005F06EFFC8B90121192005F03C
:102580007FFF4FF47A7003F025FC072005F062FF0F
:10259000044660B9064B0122064907481A7005F047
:1025A0002FFB21461920BDE8104005F069BF10BD82
:1025B000811B0020C42E0108501E002010B50620EB
:1025C00005F048FF10BB0121192005F059FF4FF419
:1025D0007A7003F0FFFB062005F03CFF0446A8B923
:1025E000FEF7CAFD4FF4A0610948FEF7BBF80848A2
:1025F000FEF7F3F8FEF7C4FD0649074805F000FBB7
:1026000021461920BDE8104005F03ABF10BD00BFBB
:10261000D01D0020E12E0108501E002008B5FEF755
:1026200073FD2D484FF4E13105F0D0F92B484FF4FC
:10263000165105F0CBF94FF41651294805F0C6F9AB
:1026400040F6B83005F064FF04F086F825492248CA
:1026500005F0D6FAB420FEF737FE23491E4805F0F0
:10266000CFFA0B20FEF790FD40F6E343984208D8DE
:102670001E49194805F0C4FA642005F049FFFFF728
:102680000BFF1B4803F0B8F91A49134805F0B8FAD4
:10269000FFF76EFFFFF792FF02221748012105F0B6
:1026A000E2F91649144805F0BFF901210A4612481B
:1026B00005F0DDF9124A1048012105F0E7F911494A
:1026C000054805F09DFA04480F4905F099FABDE860
:1026D0000840FFF76BB900BF501E0020801E00208D
:1026E000681E0020F92E01080C2F0108A62D0108F4
:1026F000201C0020252F0108481F002040420F0009
:10270000812000083A2F0108542F010870B50446B3
:102710000D4600680C49164605F057FA2946206810
:1027200005F053FA31460A22206805F0F6FA2068CF
:10273000064905F04AFA206803689B699847BDE896
:102740007040002005F0E4BE622D0108502D010804
:1027500013B50446002005F0DBFE2069227D074901
:10276000FFF7D4FF002323770093019320690449E6
:10277000044AFFF780FE02B010BD00BF732F0108AE
:10278000382D0108EA2F0108F0B50F4687B0002563
:10279000044626493A46FFF7B9FF009501952046C1
:1027A0002349244A2B46FFF766FE01281AD120460A
:1027B000FFF782FC2046FFF77FFC21680A2203A86E
:1027C00005F0F6FA03A805F0D6FD064603A805F0C5
:1027D00017FB0095019520461749164A2B46FFF72F
:1027E0004AFEFEB904EB87033A46204613495E6869
:1027F000FFF78CFF124B002500931249124A134B2E
:1028000001952046FFF737FE2B46074600950195B8
:1028100020460949074AFFF72EFE7B1E5F425F41B3
:1028200037772E46304607B0F0BD00BF7E2F010837
:102830003F2D0108EA2F0108382D01088B2F0108D0
:10284000B92F0108972F0108A42F0108AE2F010806
:102850007FB50546002405EB84035E6846B1737FAF
:1028600033B1002373772846E1B2FFF78DFFF08282
:102870000134052CEFD128680368DB68984748B11C
:10288000002200920192029228460A211346FFF785
:102890005FFDF0E704B070BDD0F88020D0F8843040
:1028A000D01A48BF8030704738B50446002005F084
:1028B0002FFE237F04F120058BB12846FFF7ECFFA4
:1028C00068B90A4BA26919688A1AB2F5FA7F03D966
:1028D0001B6801226277A3612069FFF7B9FF2846D0
:1028E000FFF7DAFFE38A184438BD00BFAC1F0020B1
:1028F0002DE9F04104460E46006812491F469046F5
:10290000069D05F062F93146206805F05EF9414602
:102910000A22206805F001FA3946206805F050F9CE
:1029200029460A22206805F001FA2068064905F0C8
:102930004CF9206803689B699847BDE8F041002086
:1029400005F0E6BD622D0108502D0108F0B587B0F5
:102950000025044600920F4616461C491A462C23B1
:10296000FFF7C6FF0095019520461949194A2B46E5
:10297000FFF781FD012802D04FF0FF3422E02068EC
:102980003946036832469B689847206803689B690C
:1029900098470095019520460F490E4A2B46FFF7B0
:1029A0006AFD0128E8D12046FFF786FB216803A8CD
:1029B0000A2205F0FDF903A805F0DDFC044603A892
:1029C00005F01EFA204607B0F0BD00BFC42F010875
:1029D0000C300108EA2F0108CE2F010870B504461B
:1029E00000200E46154605F093FD2069FFF730FFE5
:1029F000206931462A46237DFFF7A8FF70BD0000FD
:102A00002DE9F04186B00025044600912C232F4982
:102A10001646FFF76DFF0095019520462C492D4A7B
:102A20002B46FFF728FD01284BD12046FFF744FB3A
:102A30002046FFF741FB21682C2203A805F0B8F9D6
:102A400003A805F098FC074603A805F0D9F904EBA4
:102A5000860603A821680A22D6F8048005F0A8F9A2
:102A600003A805F088FCA8F8160003A805F0C8F92B
:102A7000BD421ED020680368DB68984710B905F096
:102A800047FDF7E7206803681B69984773685FFA9A
:102A900080FED3F8A010D3F8A4004A1C02F07F02F5
:102AA000824204D0194481F820E0C3F8A020013507
:102AB000DEE700230093019320460749054AFFF70C
:102AC000DAFC284606B0BDE8F08100BFDD2F010822
:102AD0003F2D0108EA2F0108382D01082DE9F74F95
:102AE000044600208946019205F012FD2069FFF797
:102AF000AFFE0025019B9D4245D2019B04F1200BB6
:102B00005846C5EB0308FFF7C7FE404538BF80466F
:102B1000B8F1000F24D04746CA465846FFF7BCFE1E
:102B200010B9C1444544E5E7D4F8A430C3F18006A8
:102B3000B742B8BF3E468642A8BF06460BEB03012C
:102B400050463246009308F099FC009BBF1B03EBF4
:102B5000060C0CF07F02C4F8A420B244E1D0DCE7FC
:102B60002069FFF775FEE38A6BB1D4F8A420D4F88E
:102B7000A0302069D11A0029D8BF80310139227DC7
:102B8000FFF73EFFB6E7284603B0BDE8F08F000030
:102B900013B5002422462346009421460D4804F034
:102BA000CFFF0D4B0D4A0E481A604FF47A728260C7
:102BB0000C4A446002600122C0F8A440C0F8A04062
:102BC00003610275C482846104774477986002B01F
:102BD00010BD00BF981A00204C1B0020681E00206A
:102BE000A41A0020002D01080A4B1A680A4B9B68A2
:102BF00000BF00BF074909688A42F5D1C3F58C338D
:102C0000482103F5A073B3FBF1F34FF47A7000FB96
:102C100002307047AC1F002010E000E010B5044601
:102C200080E80600D0B2002105F0C4FB2078002126
:102C300005F0C0FB00232079E360012105F020FCB2
:102C400020780121BDE8104005F01ABC38B5C368F2
:102C500004460D4623B10021C160007805F0AAFBAF
:102C600020782946BDE8384005F00ABC10B500219F
:102C70000446FFF7EBFF642005F058FC20790021A3
:102C800005F0FEFBBDE81040642005F04FBC10B518
:102C900000210446007905F0F3FB642005F046FCB2
:102CA00020460021FFF7D2FF642005F03FFC207989
:102CB000012105F0E5FB642005F038FC20460121E8
:102CC000FFF7C4FFBDE81040642005F02FBCF8B545
:102CD00004460E460825F7092079002105F0D0FBAF
:102CE00020463946FFF7B2FF0121207905F0C8FBE5
:102CF000642005F01BFC20463946FFF7A7FF76004D
:102D0000013DF6B2E7D12946207905F0B9FB2078DC
:102D1000022105F04FFB0223E3602079012105F039
:102D2000AFFBFFF761FF0546207805F093FB30B15C
:102D3000FFF75AFF401B6428F6D90020F8BD012098
:102D4000F8BD38B50D460446FFF790FF69002046F0
:102D500001F0FE01FFF7BBFF38BD08B5FFF797FF95
:102D6000002008BD08B5FFF7B2FF08BD70B50D46DD
:102D70006D0004461646FFF779FF691CA6602046E1
:102D8000C9B2FFF7A4FF70BD70B586680446002E77
:102D900055D00078022105F00DFB0223E3600825E1
:102DA00000262079002105F06BFB0121207905F038
:102DB00067FB642005F0BAFB207805F04BFB013D72
:102DC00000EB460000F0FF06EBD1A3686068013B12
:102DD000002BA360C0B2294617DD05F051FB64202B
:102DE00005F0A4FB29462046FFF730FF642005F0DC
:102DF0009DFB2079012105F043FB642005F096FB43
:102E00002079294605F03CFB19E005F039FB6420E8
:102E100005F08CFB01212046FFF718FF642005F028
:102E200085FB0121207905F02BFB642005F07EFB5A
:102E30002079294605F024FB2046FFF728FF30467D
:102E400070BD002330B5054618468B420FDAEA5CA8
:102E50005040082210F0010F4FEA60041ABF84F0BE
:102E6000E000C0B2E0B2013AF4D10133EDE730BD89
:102E700010B5044620680368DB68984710B905F070
:102E800047FBF7E7206803681B6998472C28F1D1B6
:102E9000012010BD2DE9F041C44DC8B0697B00226E
:102EA0004C298DF8042008AC4FF0FE00C04B40F0D8
:102EB00008812070D02060702720A0701878BD4F46
:102EC000E0705878617220719878DB786071A37136
:102ED0000623E37107F12100022323720292ADF869
:102EE0000C2009F00BF804A9C3B201AA07F12100D4
:102EF000FDF71AFB04A809F001F804A9024602A88C
:102F0000FDF7DAFA9DF80830A3729DF80930E372F4
:102F10009DF80A3023739DF80B3063739DF80C30D5
:102F2000A37397F851300BB9E82302E0012B03D1CA
:102F3000F823E373102600E00F2600239E48029337
:102F4000ADF80C3008F0DAFF04A9C3B201AA9A4820
:102F5000FDF7EAFA04A808F0D1FF04A9024602A886
:102F6000FDF7AAFA9DF808309DF80920A355731CB7
:102F7000E2549DF80A20B31CE2549DF80B20F31C88
:102F8000E2549DF80C20331DE25497F85230751D21
:102F90000BB9E72302E0012B02D1F7236355B51DDE
:102FA0006A1CFF23D2B26355A354AA1CD2B2A35405
:102FB000EA1CD2B2E221A1542A1DD2B2A3546A1D46
:102FC000D2B2A354AA1DD2B2A354EA1DD2B2E521B3
:102FD000A15405F10802D2B2A35405F10902D2B2FC
:102FE000A35405F10A02D2B2A35405F10B02D2B2E6
:102FF000E321A15405F10C02D2B20DF10501002626
:10300000A35438680DF106020DF107030296ADF8DE
:103010000C60FDF715FA9DF8052005F10D03DBB2F4
:10302000E2549DF8062005F10E03DBB23879E25434
:10303000FDF738FA05F10F03DBB2E054387AFDF7FB
:1030400031FA05F11003DBB2E054387BFDF72AFAC0
:1030500005F111085FFA88F804F80800387CFDF7DC
:1030600021FA05F11203DBB2E054387DFDF71AFABC
:1030700005F1140705F11303DBB2FFB2E054F91EAA
:103080000DF1230084F80280FFF7DBFEE05505F127
:1030900016071535EDB20D2348484949635504F02C
:1030A00094FDFFB23546BD42444880F07981615DB0
:1030B000102204F032FE4148424904F086FD0135F9
:1030C000F1E72070D02060702720A07018783E4F64
:1030D000E0705878472120719878DB786071A3718F
:1030E0000623E37107F108000223697323726172FA
:1030F0000292ADF80C2008F001FF04A9C3B201AAA6
:1031000007F10800FDF710FA04A808F0F7FE04A97B
:10311000024602A8FDF7D0F99DF80830A3729DF889
:103120000930E3729DF80A3023739DF80B30637306
:103130009DF80C30A37397F828300BB9E82302E010
:10314000012B03D1F823E373102600E00F260023A0
:103150001E480293ADF80C3008F0D0FE04A9C3B2AB
:1031600001AA1A48FDF7E0F904A808F0C7FE04A96F
:10317000024602A8FDF7A0F99DF808309DF8092045
:10318000A355731CE2549DF80A20B31CE2549DF829
:103190000B20F31CE2549DF80C20331DE25497F8E9
:1031A0002930751DA3B9E72315E000BFA41C00203A
:1031B000201C0020881B0020B91B0020501E00206E
:1031C0000A30010825360108C01C0020D81C002048
:1031D000012B02D1F7236355B51D002676480296D0
:1031E000ADF80C6008F08AFE04A9C3B201AA7248C7
:1031F000FDF79AF904A808F081FE04A9024602A886
:10320000FDF75AF99DF808309DF8092063556B1CAD
:10321000DBB2E2549DF80A20AB1CDBB2E254EB1C9B
:10322000DBB2E2226548E2540296ADF80C6008F089
:1032300065FE04A9C3B201AA6048FDF775F904A8A8
:1032400008F05CFE04A9024602A8FDF735F99DF8D6
:1032500008202B1DDBB2E2549DF809206B1DDBB268
:10326000E2549DF80A20AB1DDBB2E254EB1DDBB249
:10327000E5225348E2540296ADF80C6008F03EFE99
:1032800004A9C3B201AA4E48FDF74EF904A808F0FC
:1032900035FE04A9024602A8FDF70EF99DF80820A4
:1032A00005F10803DBB2E2549DF8092005F109039A
:1032B000DBB2E2549DF80A2005F10A03DBB2E254C6
:1032C00005F10B03DBB2E322E25497F8882005F105
:1032D0000C03DBB20DF10501E254F86A0DF10602B0
:1032E0000DF107030296ADF80C60FDF7A9F89DF803
:1032F000052005F10D03DBB2E2549DF8062005F12F
:103300000E03DBB297F83000E254FDF7CBF805F17D
:103310000F03DBB2E05497F83400FDF7C3F805F172
:103320001003DBB2E05497F83800FDF7BBF805F165
:1033300011085FFA88F804F8080097F83C00FDF7D8
:10334000B1F805F11203DBB2E05497F84000FDF745
:10335000A9F805F1140705F11303DBB2FFB2E0543D
:10336000F91E0DF1230084F80280FFF76AFDE05595
:1033700005F116071535EDB20D2312481249FFB2BB
:10338000635504F022FCBE420E4809D2A15D102212
:1033900004F0C3FC0B480D4904F017FC0136F2E7BA
:1033A0000B4904F02DFC21463A460A48FFF716FB6C
:1033B00048B0BDE8F08100BF101D0020241D002092
:1033C000381D0020501E00200A3001082536010853
:1033D0000E300108A41A00202DE9F041714CACB068
:1033E0002378002B40F0DA806378002B40F0D68001
:1033F000A378002B40F0D280E778002F40F0CE80F9
:1034000069496A4804F0FCFBFE238DF83030022342
:103410008DF83130237809218DF8333063780DF140
:1034200033008DF83430A3788DF832108DF83530B4
:10343000E3783D468DF8363001238DF837305C4B0C
:103440001A788DF838205A788DF839209A78DB78F8
:103450008DF83A208DF83B30FFF7F3FC0D238DF803
:103460003C00544903A88DF83D3004F00BFD524850
:10347000FEF7B7FD002800F08E80002D40F08B8015
:103480004A484E4904F0A1FB2E460DF1300818F8C9
:1034900006101022454804F040FC013643484849D4
:1034A00004F093FB0E2EF0D14649404804F0A8FBEF
:1034B000414841463246FFF791FA4FF47A7005F0E1
:1034C00027F83D48FFF7F0F9002800DD95B1022FFD
:1034D0000BD93D49354804F093FB3748FFF738F9DD
:1034E00003A804F08DFC002059E04FF47A6005F049
:1034F0000FF8BCE73048FEF75AFDC1B20029E0D012
:1035000003A804F050FD314909A804F0BBFC03A84E
:1035100009A904F0DBFD064609A804F071FC002EA1
:10352000CFD006A824490A2201AE04F041FC2B4664
:1035300006A83146052204F0EDFD2B46F25C402A38
:1035400094BF303A373AE2540133042BF6D1204984
:1035500009A804F097FC06A909A804F07AFD014621
:10356000124804F043FB09A804F04AFC0D4802F09D
:10357000D1F920B1174B00221A70012507E002F0A3
:1035800015FA013709481449FFB204F039FB06A8BF
:1035900004F036FC95E703A804F032FC01202CB0BF
:1035A000BDE8F081201C002012300108501E0020D0
:1035B00014020020522D0108A41A00200A3001082C
:1035C000253601080E3001088D30010860300108F1
:1035D0006A300108811B00207830010838B50446A4
:1035E0000D460068094904F0F0FA2946206804F005
:1035F000ECFA2068064904F0E8FA206803689B6941
:103600009847BDE83840002004F082BF622D0108D1
:10361000502D010870B5144986B000240546FFF707
:10362000DDFF0094019428461049114A2346FEF715
:1036300022FF012818BF632014D129682C2203A877
:1036400004F0B6FB03A804F096FE064603A804F0B7
:10365000D7FB0094019428460649054A2346FEF705
:103660000AFF304606B070BDB1300108B63001081F
:10367000AD360108053001082DE9F04F8DB002F09C
:1036800091FB074628B1AA4B1B68984288BF0127C7
:1036900000E0012772B64FF4A061A648FDF762F87A
:1036A000A448FDF798F8814662B6A349A34804F000
:1036B0008CFAA24849460A2204F054FBDFF89482AF
:1036C0009E48B9F1000F0AD0994B1B68994506D264
:1036D0009B4904F095FA012388F80E301DE09949C2
:1036E00004F08EFA002388F80E304FF0010914E040
:1036F000954904F085FA95492A789548FFF76EF9BF
:1037000001374FF47A7004F003FF384602F038FBBB
:10371000904B9B7B002B00F026864F4500F22386C2
:1037200098F80E305BB172B64FF4A0618148FDF796
:1037300019F83946884A7F48FDF726F862B6874966
:103740007E48854E04F041FA0A2239467B4804F04F
:10375000F6FA8349794804F038FA0A227169774801
:1037600004F0BAFA7F49754804F02FFA0A22316949
:10377000724804F0B1FA7B49704804F026FA0A2234
:10378000F1686E4804F0A8FA77496C4804F01DFA15
:103790000A22B168694804F09FFA7449674804F046
:1037A00014FA0A227168654804F096FA6F49634872
:1037B00004F00BFA31680A22604804F096FA644873
:1037C000FEF70FFC0446002800F0DE8598F80C3068
:1037D000012B09D16649594804F012FAFFF75AFB48
:1037E0004FF47A7004F094FE62495448624C04F03D
:1037F00007FA0021142207A8069107F01BFFFE23F9
:103800002370CB2363705423A3705C4B5C4D1A78F8
:10381000B06DE2705A7822719A78DB786271A37188
:1038200008232B700623E3714FF6FE7398420AD9E2
:10383000494B93F85C30012B05D0FF230A222372F9
:103840002A70637218E096F85C30012B08BFC0F54F
:10385000803006F00BFE04220146022306A8FCF786
:1038600089FE2B789DF81820E2549A1C2A700133A7
:103870009DF81920DBB2E25496F85C30D6F854A0DB
:10388000012B2B78504603F101022A700CBFF22263
:10389000E222E2540023069306F090FF4FF6FE73F7
:1038A000984207DD2B78FF22991CE25401332970DE
:1038B000DBB20FE00422022306A85146FCF75AFEB1
:1038C0002B789DF81820E2549A1C2A7001339DF839
:1038D0001920DBB295F800A0E254E2220AF10103BC
:1038E000DBB204F80A200021142207A82B700691ED
:1038F000019307F09FFE326E2249DFF884B08A42BE
:103900001D4D019B40D9FF22EA540AF10203DBB2AC
:10391000EA540AF10303DBB2EA540AF105030AF19F
:10392000040A5FFA8AFA8BF8003005F80A204EE0A4
:1039300018020020D01D0020BE300108501E0020BB
:10394000D0300108E33001080E300108501D00207E
:10395000A41A0020A41C0020D8190020FA30010865
:103960000D3101084E2C01082436010821310108CF
:10397000233101083C310108241C0020201C0020B8
:10398000801B0020400D0300C54907A808F09AF8E5
:1039900007A808F0B3FA07A9024606A8FCF78CFDB1
:1039A0009BF800309DF818209DF81910EA545A1C15
:1039B000D2B2A9549A1C9DF81A10D2B2A9541A1D59
:1039C0008BF8002003339DF81B20DBB2EA54B54C82
:1039D000B54D23784FF0000A5A1C2270E022EA54B9
:1039E0005146142207A8CDF818A007F023FEAC49D1
:1039F000726E07A808F066F807A808F07FFA07A912
:103A0000024606A8FCF758FD22789DF818309DF86C
:103A10001910AB54531CDBB2E9549DF81A10931CD7
:103A2000DBB2E9549DF81B10D31CDBB2E954131D23
:103A3000DBB2E220E854306F511D4FF6FE73C9B27D
:103A400098422170CDF818A007DDFF236B54D11DDB
:103A50000632D2B22170AB5412E006F007FD042208
:103A60000146534606A8FCF785FD23789DF81820EB
:103A7000EA549A1C227001339DF81920DBB2EA54F3
:103A80002378E021E9545A1CB16FD2B22270084663
:103A900002910392019306F0B7FE4FF6FE7E704549
:103AA000DFF800B2DFF800A20299039A019B0AD95D
:103AB000FF210AF80210DA1C0233DBB28BF8002077
:103AC0000AF8031013E00422012306A8FCF752FDB4
:103AD0009BF800309DF818200AF803209A1C8BF8F8
:103AE000002001339DF81920DBB20AF80320237867
:103AF000E122F06F591CEA544FF6FE72C9B29042AF
:103B0000DFF8A0B12170DFF8A0A108D9FF220AF8E0
:103B10000120D91C02338BF80010DBB214E006F050
:103B2000A5FC04220146002306A8FCF723FD9BF810
:103B300000309DF818200AF803209A1C8BF800200A
:103B400001339DF81920DBB2F06E0AF803204FF61E
:103B5000FE73984207D92378FF22991CEA54013357
:103B60002170DBB211E006F081FC04220146002343
:103B700006A8FCF7FFFC23789DF81820EA549A1C4D
:103B8000227001339DF81920DBB2EA542378E02239
:103B9000706F591CEA544FF6FE72C9B29042DFF8BA
:103BA00004B12170DFF800A108D9FF220AF8012032
:103BB000D91C02338BF80010DBB214E006F056FC7F
:103BC00004220146002306A8FCF7D4FC9BF8003031
:103BD0009DF818200AF803209A1C8BF80020013366
:103BE0009DF81920DBB20AF803202378E021E9547C
:103BF000D6F88800002103F1010E06914FF6FE7100
:103C00005FFA8EFE884284F800E0274A10D92749DF
:103C100091F88C1001290BD0FF2102F80E102148D9
:103C200003F1030E0233DBB280F800E0D15418E058
:103C300096F88C30012B08BFC0F5803006F016FCDA
:103C400004220146022306A8FCF794FC23789DF881
:103C50001820EA549A1C227001339DF81920DBB217
:103C6000EA5496F88C30D6F890A0012B2378504671
:103C700003F1010222700CBFF222E222EA54002377
:103C8000069306F09BFD4FF6FE73984210DD2378F5
:103C9000FF22991CEA5401332170DBB218E000BF07
:103CA00066310108801B0020241C0020D819002048
:103CB0000422022306A85146FCF75CFC23789DF8F9
:103CC0001820EA549A1C227001339DF81920DBB2A7
:103CD00094F800A0EA54E2220AF10103DBB205F8ED
:103CE0000A200021142207A823700691019307F0EF
:103CF000A1FCD6F88020C249DFF810B38A42C14C3B
:103D0000019B14D9FF22E2540AF10203DBB2E25410
:103D10000AF10303DBB2E2540AF105030AF1040AD3
:103D20005FFA8AFA8BF8003004F80A2022E0B649DC
:103D300007A807F0C7FE07A808F0E0F807A90246A1
:103D400006A8FCF7B9FB9BF800309DF818209DF8F9
:103D50001910E2545A1CD2B2A1549A1C9DF81A10A0
:103D6000D2B2A1541A1D8BF8002003339DF81B20FA
:103D7000DBB2E254A54CA34D23784FF0000A5A1C45
:103D80002270E022EA545146142207A8CDF818A068
:103D900007F050FC9C49D6F8842007A807F092FE53
:103DA00007A808F0ABF807A9024606A8FCF784FBB1
:103DB00022789DF818309DF81910AB54531CDBB2D3
:103DC000E9549DF81A10931CDBB2E9549DF81B10BE
:103DD000D31CDBB2E954131DDBB2E220E854D6F861
:103DE0009400511D4FF6FE73C9B298422170CDF870
:103DF00018A007DDFF236B54D11D0632D2B221700B
:103E0000AB5412E006F032FB04220146534606A8EA
:103E1000FCF7B0FB23789DF81820EA549A1C227016
:103E200001339DF81920DBB2EA542378E022D6F85A
:103E30009800591CEA544FF6FE72C9B29042DFF85E
:103E4000CCB12170DFF8BCA108D9FF220AF801200B
:103E5000D91C02338BF80010DBB214E006F006FB2D
:103E600004220146002306A8FCF784FB9BF80030DF
:103E70009DF818200AF803209A1C8BF800200133C3
:103E80009DF81920DBB20AF803202378E022D6F847
:103E90009C00591CEA544FF6FE72C9B29042DFF8FA
:103EA0006CB12170DFF85CA108D9FF220AF801206B
:103EB000D91C02338BF80010DBB214E006F0D6FAFE
:103EC00004220146002306A8FCF754FB9BF80030AF
:103ED0009DF818200AF803209A1C8BF80020013363
:103EE0009DF81920DBB20AF803202378E021E95479
:103EF000B06A002103F1010E06914FF6FE715FFAE0
:103F00008EFE884284F800E03E4A10D9404991F87C
:103F10002C1001290BD0FF2102F80E103B4803F1B1
:103F2000030E0233DBB280F800E0D1541BE096F8B8
:103F30002C30012B08BFC0F5803006F097FA3549C8
:103F400006F0A0FB04220146022306A8FCF712FBA0
:103F500023789DF81820EA549A1C227001339DF8AA
:103F60001920DBB2EA5496F82C30D6F824A0012BA5
:103F70002378504603F1010222700CBFF222E222A4
:103F8000EA540023069306F019FC4FF6FE7398429C
:103F900007DD2378FF22991CEA5401332170DBB23C
:103FA0000FE00422022306A85146FCF7E3FA237827
:103FB0009DF81820EA549A1C227001339DF81920AC
:103FC000DBB2EA542278306BE223511C4FF6FE7EBE
:103FD000C9B2AB5470454FF00003DFF830B0217028
:103FE000DFF820A0069317D9FF230AF80130D11C6F
:103FF0000232D2B28BF800100AF8023024E000BF7F
:10400000400D0300241C002066310108801B0020A5
:10401000D819002000002041019306F027FA04225D
:104020000146019B06A8FCF7A5FA9BF800309DF815
:1040300018200AF803209A1C8BF8002001339DF801
:104040001920DBB20AF803202278706BE023511CA0
:104050004FF6FE76C9B2AB54B0424FF00003DFF822
:1040600084B32170DFF880A306930AD9FF230AF8EE
:104070000130D11C0232D2B28BF800100AF80230A3
:1040800017E0019306F0F2F904220146019B06A80D
:10409000FCF770FA9BF800309DF818200AF803200E
:1040A0009A1C8BF8002001339DF81920DBB20AF826
:1040B00003202378C64EE022EA549A1C2270013372
:1040C00096F83C20DBB20B20EA54FDF75DF80DF1C9
:1040D00015010DF116020DF11703FCF7B1F9237864
:1040E0009DF81520BB48EA549A1C227001339DF8B4
:1040F0001620DBB2EA54FFF78DFA0DF115010DF130
:1041000016020DF11703FCF79BF923789DF8152093
:104110000DF11501EA549A1C227001339DF8162006
:10412000DBB2EA5470690DF116020DF11703FCF7CA
:1041300087F994F800A09DF815309DF8162005F831
:104140000A300AF10103DBB2EA54307C0AF10303BE
:104150002370FCF7A7F90AF1020A5FFA8AFA05F858
:104160000A0094F800A0307B0AF101032370FCF7E9
:1041700099F905F80A0094F800A0307A0AF10103D1
:104180002370FCF78FF905F80A0094F800A0307945
:104190000AF101032370FCF785F905F80A0094F889
:1041A00000A030780AF101032370FCF77BF9217835
:1041B00005F80A0003398848A970FEF742FE237803
:1041C0008649E8549A1C01332270DBB20D228448E0
:1041D000EA5403F0FAFC0024824D81482B789C427B
:1041E0000AD2814B1022195D03F097FD7C487F496C
:1041F00003F0EBFC0134EFE77D4903F001FD2A7881
:1042000079497C48FEF7EAFB4FF47A707A4D04F066
:104210007FF97A49724803F0F3FCFE232B70C12327
:104220006B701823AB70764B764C1A78EA705A781C
:104230002A719A78DB786A71AB710722724B22700F
:1042400007AA1046196807F0FBFD00230246AE4698
:10425000D15CA1F13000C0B209288ABF5739D054CF
:10426000D1540133142BF3D123784FF0000A02EB21
:104270000A0003EB0A01C0790AF1010AC9B2BAF1D6
:104280000D0F5D4D0EF80100F1D10D330DF116014A
:10429000237070690DF1170206ABFCF7D1F894F8A2
:1042A00000B09DF816309DF8172005F80B300BF183
:1042B0000103DBB2EA54307C0BF103032370FCF7FB
:1042C000F1F80BF1020B5FFA8BFB05F80B0094F889
:1042D00000B0307B0BF101032370FCF7E3F805F825
:1042E0000B0094F800B0307A0BF101032370FCF757
:1042F000D9F805F80B0094F800B030790BF1010300
:104300002370FCF7CFF805F80B0094F800B0307874
:104310000BF101032370FCF7C5F8217805F80B00B9
:104320000339E81CA970FEF78CFD23782B49E8546B
:104330009A1C0133DBB22A48227005F803A003F06F
:1043400044FC00242F4D26482B789C42BFF4D0A972
:10435000294B1022195D03F0E0FC2148234903F0AA
:1043600034FC0134EEE772B698F80E308BB1FCF7EE
:1043700003FF4FF4A0612548FCF7F4F92348FCF74C
:104380002CFAFCF7FDFE04E01A48FEF7E1F920469E
:104390001BE01F4801F057FDD8F804304AF68402AC
:1043A0003C3B9342014602D91A4BB4225A60D8F8DA
:1043B00004301748194401F053FD62B6012001F0A2
:1043C000DFFC0C48FEF7C4F901200DB0BDE8F08F0A
:1043D000D81900204C1B0020271C00200A3001089F
:1043E000501E0020801B0020241C002025360108C0
:1043F0000E300108A41A0020501D00206C31010865
:10440000201C0020101C0020141C0020D01D0020A7
:10441000C8190020A41C002010B51248124903F04E
:10442000EFFB1248FDF7DDFD60B1FFF725F904460B
:104430000F490C481CB103F0E3FB012010BD03F051
:10444000DFFB0DE007480B4903F0DAFB0A4B1B7C4E
:104450001BB901F0ADFB01F011FC0448FEF778F93F
:10446000002010BD501E00208B310108A41A00202E
:10447000522D0108BA310108A41C002030B5504D5E
:104480008DB02846FFF7C6F801210446192003F035
:10449000F7FF1820002103F0F3FF4A494A4803F0D0
:1044A000AFFB4A49484803F090FB21460A224648A0
:1044B00003F01BFC002428464549FFF78FF80094C1
:1044C000019428464349444A2346FDF7D4FF012876
:1044D00004D003A8414903F0D5FC16E009A82968D7
:1044E0000A2203F065FC3E493B4A234600940194AE
:1044F0002846FDF7C0FF09A803F013FF03A809A988
:1045000003F06FFC09A803F07BFC364909A803F00F
:10451000B9FC03A909A803F09CFD294D01462A48CE
:1045200003F064FB09A803F06BFC002428462E4925
:10453000FFF754F80094019428462C49264A234654
:10454000FDF799FF012804D006A8244903F09AFC3E
:1045500016E009A829680A2203F02AFC20491E4A0D
:104560002346009401942846FDF785FF09A803F02F
:10457000D8FE06A809A903F034FC09A803F040FC02
:1045800006A91B4803F0CBFC06A803F039FC09A8D8
:10459000184903F077FC09A8154903F05AFD0146B4
:1045A000094803F023FB09A803F02AFC0B4906483D
:1045B00003F026FB03A803F023FC0DB030BD00BFC1
:1045C0004C1B0020E6310108501E00201432010867
:1045D0001A320108502D0108AD360108522D01088C
:1045E000053001081F320108253201082C3201086C
:1045F000141C00203632010830B5304985B0002443
:104600000546FEF7EBFF0094019428462C492D4AFD
:104610002346FDF730FF012801D001204BE028465A
:104620002949FEF7DBFF274A2346284900940194D5
:104630002846FDF720FF28462549FEF7CFFF0094C6
:104640000194029428462349234A1E4BFDF780FE1D
:10465000012802D0214822492AE01C4A194B4FF474
:104660007A710094019402942846FDF771FE284661
:104670001C49FEF7B3FF0094019428461A49114AD9
:104680002346FDF7F8FE012802D0144817490FE031
:1046900028461749FEF7A2FF0094019428461549C1
:1046A000084A2346FDF7E7FE0128B6D00B48124919
:1046B00003F0A6FA204605B030BD00BF3F32010826
:1046C00046320108AD3601084F32010805300108B5
:1046D0006B320108084C010076320108501E0020A0
:1046E00080320108A0320108AD320108BE32010853
:1046F000D7320108E4320108F5320108F0B5A7B05D
:1047000007A8934903F0BEFB9248FDF76AFC002816
:1047100000F04A83904D6B7C002B40F045838D4820
:10472000FEF7C2F80028EFDD6E7C002EECD1894840
:10473000FDF73DFCC1B20029F1D007A803F033FC1E
:10474000864919A803F09EFB07A819A903F0BEFC2F
:10475000044619A803F054FB002CE0D00A220AA852
:104760007C4903F025FB7A490DA803F08BFB0B2253
:10477000314604A806F05EFF794919A803F082FBD0
:104780000AA919A803F065FC0146764803F02EFA41
:1047900019A803F035FB744916A803F073FB16A99A
:1047A0000AA803F0ECFC324603460AA919A803F054
:1047B0000DFD19A90DA803F0B2FB19A803F020FB09
:1047C00016A803F01DFB0DA804A90B22334603F025
:1047D000A1FC9DF810309DF81300303BC3EB431152
:1047E00003EB81039DF811109DF812203039303809
:1047F00001EB810100EBC30301EB8101303A5B4C1B
:1048000003EB810102EB820201EB42029DF81530BD
:10481000E2809DF81620303B303A03EB830302EB35
:10482000430363719DF818309DF81920303B303AEE
:1048300003EB830302EB430331460B2204A82371ED
:1048400006F0F8FE4A4919A803F01CFB0DA919A8A7
:1048500003F0FFFB0146434803F0C8F919A803F031
:10486000CFFA414916A803F00DFB16A90AA803F0D8
:1048700086FC0C9B421C0AA919A803F0A7FC19A9E5
:104880000AA803F04CFB19A803F0BAFA16A803F023
:10489000B7FA354916A803F0F5FA16A90AA803F0E5
:1048A0006EFC324603460AA919A803F08FFC19A929
:1048B0000DA803F034FB19A803F0A2FA16A803F020
:1048C0009FFA0B2233460DA804A903F023FC2949C3
:1048D00019A803F0D7FA0DA919A803F0BAFB0146ED
:1048E000204803F083F919A803F08AFA9DF81030E4
:1048F0009DF81120303B303A03EB830302EB430376
:10490000A3709DF813309DF81420303B303A03EB30
:10491000830302EB430363709DF816309DF8172064
:10492000303B303A03EB830302EB43032046237012
:10493000FBF7C4FC0146104801F082FAA3780F2B64
:104940001CD163783B2B19D8034B01221A7317E053
:10495000522D0108A41A0020A41C00201E330108B7
:1049600026330108501E0020762D0108CA190020A8
:10497000393301084F330108C819002000232B7375
:10498000994801F060FA01469848FBF70BFC217941
:10499000E28863790091A17819A801916178029168
:1049A00021780391924907F08DF819A9914803F0F5
:1049B00027F9914913A803F065FA13A90AA803F08F
:1049C000DEFB0C9B421C0AA916A803F0FFFB16A9EC
:1049D0000AA803F0A4FA16A803F012FA13A803F029
:1049E0000FFA854913A803F04DFA13A90AA803F09A
:1049F000C6FB002203460AA916A803F0E7FB16A986
:104A00000DA803F08CFA16A803F0FAF913A803F026
:104A1000F7F90DA803F0AFFC7849286016A803F059
:104A200031FA0DA916A803F014FB0146714803F0F2
:104A3000DDF816A803F0E4F92B684AF684023C3B43
:104A4000934202D96E4BB4221A606B4913A803F04B
:104A500019FA13A90AA803F092FB0C9B421C0AA99D
:104A600016A803F0B3FB16A90AA803F058FA16A873
:104A700003F0C6F913A803F0C3F95F4913A803F0C4
:104A800001FA13A90AA803F07AFB002203460AA937
:104A900016A803F09BFB16A90DA803F040FA16A870
:104AA00003F0AEF913A803F0ABF90DA803F063FC13
:104AB0005449686016A803F0E5F90DA916A803F09B
:104AC000C8FA01464B4803F091F816A803F098F98C
:104AD0006B684AF684023C3B934202D9484BB422AD
:104AE0005A60454913A803F0CDF913A90AA803F0A9
:104AF00046FB0C9B421C0AA916A803F067FB16A9EB
:104B00000AA803F00CFA16A803F07AF913A803F028
:104B100077F9394913A803F0B5F913A90AA803F0E6
:104B20002EFB002203460AA916A803F04FFB16A984
:104B30000DA803F0F4F916A803F062F913A803F026
:104B40005FF90DA803F017FC2F49A86016A803F021
:104B500099F90DA916A803F07CFA0146254803F03F
:104B600045F816A803F04CF9234913A803F08AF975
:104B700013A90AA803F003FB0C9B421C0AA916A860
:104B800003F024FB16A90AA803F0C9F916A803F03C
:104B900037F913A803F034F900210AA803F0ACFA9E
:104BA00003781A4916A86B7303F06CF90AA916A8C2
:104BB00003F04FFA01460F4803F018F816A803F067
:104BC0001FF92E7B0E4C012E40F0DC80E37B3BBBBB
:104BD0000F48FFF711FD07460648EFB10D4903F0F6
:104BE0000FF8E6731CE000BFC8190020CA190020A6
:104BF00065330108501E0020762D01088B33010813
:104C0000A41C00209E330108AE330108B93301080B
:104C10004C1B0020C4330108664902F0F1FFE77322
:104C2000EB7B002B00F0AE80634B5B7B4C2B55D1B4
:104C3000624E634910A803F025F90024304661490B
:104C4000FEF7CCFC00940194029430465E495F4A22
:104C50005F4BFDF77DFB012804D013A8584903F0F2
:104C600011F916E016A831680A2203F0A1F8594993
:104C7000574A2346009401943046FDF7FCFB16A8E2
:104C800003F04FFB13A816A903F0ABF816A803F026
:104C9000B7F813A910A803F042F913A803F0B0F86D
:104CA0004D4916A803F0EEF810A916A803F0D1F9A3
:104CB00001464A4802F09AFF16A803F0A1F8002323
:104CC00010A916A8EB7303F020F916A84449FBF7C6
:104CD000EFFD16A803F094F810A851E0472B51D12E
:104CE000364E40493046FEF779FC0024642003F03C
:104CF0000FFC0094019430463B49354A2346FDF7AA
:104D0000BAFB012808D03949344802F079FF13A8CA
:104D10002B4903F0B7F816E016A831680A2203F011
:104D200047F82C492A4A2346009401943046FDF75F
:104D3000A2FB16A803F0F5FA13A816A903F051F880
:104D400016A803F05DF82A4916A803F09BF813A9EA
:104D500016A803F07EF90146204802F047FF16A886
:104D600003F04EF813A916A803F0CFF8214916A8AE
:104D7000FBF74CFF16A803F043F80023EB7313A8CE
:104D800003F03EF80E49154802F03AFF00F0D4FE59
:104D900008B100F0CDFF01230DA86B7403F030F8CB
:104DA0000AA803F02DF8BAE407A803F029F827B001
:104DB000F0BD00BFD4330108A41C00204C1B002010
:104DC000522D0108E6330108084C0100F0330108B8
:104DD000AD36010805300108F9330108501E0020E6
:104DE000881B0020033401080C3401081834010822
:104DF0002F340108C01C0020F0B56249A1B0624800
:104E000002F0E3FE614C62495F4802F0DEFE614958
:104E10005D4802F0DAFE21680A225B4802F065FF75
:104E200025885D4C0026002003F072FB2A46C4F85A
:104E3000A460C4F8A06020695549237DFDF7A8FA55
:104E4000801B18BF01202077544D60B94E4854494B
:104E500002F0D6FE2B7C1BB900F0AAFE00F00EFF7C
:104E600001F098FF8BE04F49474802F0C9FE4E49D8
:104E7000454802F0C5FE4D4C1920314603F000FBB9
:104E80001820012103F0FCFA2046294600F0B4FE68
:104E9000FEF7A2FA002872D0FE2309268DF8003012
:104EA0002046C02329468DF801308DF8026000F0BD
:104EB000A3FE237831468DF8033063780DF10300AB
:104EC0008DF80430A3788DF80530E3788DF806303E
:104ED00006238DF80730364B1A788DF808205A785B
:104EE0008DF809209A78DB788DF80A208DF80B3040
:104EF000FDF7A7FF0D238DF80D302E4B8DF80C001C
:104F00001E681F462448FDF76CF8F8B11E482A4970
:104F100002F05BFE00241DF8041010221A4802F073
:104F2000FCFE01341848254902F04FFE0E2CF2D148
:104F30002349154802F064FE694622461648FDF7EB
:104F40004DFD4FF47A7003F0E3FA0EE00E481D4970
:104F500002F056FE2B7C1BB900F02AFE00F08EFEFC
:104F60000D48FDF7F5FB01F015FFFFF7C7FB6B7C64
:104F70002BB93A6843F69723921B9A42C2D921B0C3
:104F8000F0BD00BF39340108501E0020100200207F
:104F9000F82F01080C2B0108A41A0020A41C0020E3
:104FA000483401088A340108522D0108201C0020D1
:104FB00014020020AC1F00200A3001082536010829
:104FC0000E3001089F3401082DE9FF41134B0546BF
:104FD0001F680E469846D8F800300024DB1BB34209
:104FE00017D228460E49FEF7F9FA0094019402946C
:104FF0002846C8210B4A0C4BFDF7AAF90446012CA0
:105000004FF0640002D103F083FA02E003F080FA6B
:10501000E1E7204604B0BDE8F08100BFAC1F0020EE
:10502000522D010805300108AD3601081F4B2DE94E
:10503000F3411F6805460E469846D8F80030DB1B42
:10504000B3422CD2002428461949FEF7C7FA00942F
:10505000019428461749184A2346FDF70CFA0128FF
:1050600004D04FF47A7003F053FAE6E7134B144977
:105070008DE81800134A144B2846FDF7FCF90094FC
:1050800006460194284611490B4A2346FDF7F3F9D9
:10509000012E06D003D3032E01D8022002E0002007
:1050A00000E0304602B0BDE8F08100BFAC1F002038
:1050B000DD340108E4340108AD3601080335010888
:1050C000ED340108F3340108FB3401080530010810
:1050D0007FB542F210710546FFF776FF58B3002402
:1050E00028462149FEF77AFA009401940294284652
:1050F00042F210711D4A1E4BFDF72AF901281AD100
:1051000028461C49FEF76AFA009401940294284646
:1051100042F21071154A164BFDF71AF901280AD10F
:1051200040F6B83003F0F4F9284642F21071FFF768
:105130004BFF064608B9002612E028460E49FEF746
:105140004DFA0094019428460849094A2346FDF780
:1051500092F90128EFD1284642F21071FFF766FF5D
:10516000304604B070BD00BF10350108053001089D
:10517000AD360108183501082235010870B5164909
:1051800086B000240546FEF729FA009401942846CB
:105190001249134A2346FDF76EF9012818BF04206F
:1051A00017D12846FDF764FE29680A2203A802F0F9
:1051B000FFFD03A803F0DFF8064603A802F020FE77
:1051C0000094019428460749054A2346FDF753F900
:1051D000F0B206B070BD00BF3F3201084632010890
:1051E000AD36010805300108F8B504460D460068E3
:1051F0000E4916461F4602F0E8FC2946206802F0D8
:10520000E4FC3146206802F0E0FC3946206802F0F8
:10521000D7FC2068064902F0D8FC206803689B6927
:105220009847BDE8F840002003F072B9622D0108EC
:10523000502D01082DE9F04300258FB00446894622
:10524000984990461F46FEF7C9F9974A974B4EF684
:1052500060210095019502952046FDF779F82046DA
:105260009349FEF7BBF99049904A2B46009501956A
:105270002046FDF700F920468E494A462223FFF7D3
:10528000B3FF0095019520468749884A2B46FDF7D4
:10529000F2F8B8F1000F0DD020468749424622238C
:1052A000FFF7A2FF0095019520467F497F4A2B46D4
:1052B000FDF7E1F86FB1204680493A462223FFF717
:1052C00093FF00230093019320467749774AFDF727
:1052D000D2F8764E0025204679494A462223FFF728
:1052E00083FF32462B467049009501952046FDF715
:1052F000C2F820467349FEF771F96B4A33464EF601
:1053000060210095019502952046FDF721F8204681
:105310006D49FEF763F9644A33466C49009501957F
:1053200002952046FDF714F820466949FEF756F924
:10533000009501950295204647F230515A4A33466E
:10534000FDF706F8012801D00025EDE0204661496F
:10535000FEF744F900950195029520464EF660212E
:10536000514A3346FCF7F4FF0128EDD120465A4953
:10537000FEF734F90095019520464B4932462B46FD
:10538000FDF779F80128DFD120465449FEF726F9C8
:10539000009501952046444932462B46FDF76BF8AF
:1053A0000128D1D120464E49FEF718F90095019504
:1053B00020463D4932462B46FDF75DF80128C3D112
:1053C0004849206802F001FC4749206802F0FDFBD3
:1053D0004946206802F0F9FB4449206802F0F5FBD9
:1053E0004146206802F0F1FB4049206802F0EDFBE5
:1053F0003946206802F0E9FB3D49206802F0E5FBF0
:105400003C49206802F0E1FB206803689B699847EB
:10541000284603F07DF800950195029520464EF64A
:105420006021214A3346FCF793FF01288CD12046A6
:105430003149FEF7D3F800950195029520464EF6C6
:105440006021194A3346FCF783FF01287FF47CAFC3
:1054500020462A49FEF7C2F8294905A802F012FDA4
:105460000096019502950395204642F2107105AA17
:105470000D4BFCF733FE012844D008A81D4902F06B
:1054800001FD0BA81E4902F0FDFC05A808A90BAA06
:1054900002F0C2FE0BA802F0B3FC08A802F0B0FCB8
:1054A0003FE000BF2835010805300108AD3601088E
:1054B0004F320108313501084435010858350108DB
:1054C0006B3501087D35010888350108084C01005D
:1054D0006B320108933501089C350108A635010897
:1054E000B2350108622D0108BE3501086735010893
:1054F00069350108502D0108C6350108CD35010870
:10550000522D010820460A49FEF768F82B460095FF
:105510000195204607493246FCF7ADFF431E5D4228
:105520005D4105A802F06CFC28460FB0BDE8F08391
:10553000D73501080530010838B52F492F4802F04A
:105540005FFB642002F0E4FF0121052002F098FFD8
:10555000642002F0DDFF1820012102F091FFFBF72B
:105560008FFE0021182002F08BFF2548FFF7B0FDC9
:105570002449224802F029FB642002F0C9FF224B93
:105580001C681D462A684EF66023121B9A420BD2F5
:105590001B48FFF7F3FD00F0FB00012811D04FF48A
:1055A0007A7002F0B5FFEDE71448184902F028FBC5
:1055B000174B1B7C1BB900F0FBFA00F05FFB0024CB
:1055C00018E014490D4802F01BFB13490B4802F088
:1055D000FCFA1249094802F013FB09480F49104A26
:1055E000104BFFF727FE044610B904480E49DDE7CB
:1055F000FEF744FF204638BDF4350108501E002058
:105600004C1B00200E360108AC1F00206C36010830
:10561000A41C0020A936010839340108F22F010822
:10562000AC360108B53601082736010837B5002425
:10563000224621462346114D0094114802F080FA7B
:10564000104B284610491C605C609C601C739C7366
:10565000DC731C745C7402F015FC28460B490C4A80
:1056600003F072F80B4B83F8514083F852400A4B19
:1056700083F8284083F8294003B030BD141C002073
:10568000781B0020A41C0020522D0108017E000878
:1056900008000020881B0020C01C0020FAF782BEF2
:1056A000FAF7A2BE70B5044601F062F80A2002F0D3
:1056B0002FFF00214D1CE8B2615C01F066F8042D5B
:1056C0002946F7D12046FDF7BCFB0146052001F035
:1056D0005CF800235D1CE8B2E65C01F04FF88642FE
:1056E00004D1042D2B46F5D1012070BD002070BDE2
:1056F00070B5054601F03CF80A2002F009FF0024CD
:1057000004F10B00295DC0B2013401F03EF8042C15
:10571000F6D121462846FDF794FB01460F2001F003
:1057200034F8002404F10B00C0B22E5D01F026F81D
:10573000864204D10134042CF4D1012070BD002034
:1057400070BD70B5044600256E1CF0B201F016F86D
:10575000042E60553546F7D1052001F00FF8294693
:1057600006462046FDF76DFBF6B286420CD1237843
:1057700043B9637833B9A37823B9E078003018BF10
:10578000012070BD012070BD002070BD70B50546C0
:10579000002404F10B00C0B200F0F0FF28550134E2
:1057A000042CF6D10F2000F0E9FF214606462846DA
:1057B000FDF747FBF6B286420DD1084B1A7842B985
:1057C0005A7832B99A7822B9D878003018BF0120B7
:1057D00070BD012070BD002070BD00BF201C0020E6
:1057E00070B50546FBF7C8FC08242B19204613F8B2
:1057F000081C0134FAF7D6FD0C2CF6D104212846FA
:10580000FDF71FFB01462046FAF7CCFDFBF7B8FC7D
:1058100008242B19204613F8086CFAF7E5FD864298
:1058200004D101340C2CF4D1012070BD002070BDD6
:1058300070B50546FBF7A0FC10242B19204613F881
:10584000101C0134FAF7AEFD142CF6D104212846C1
:10585000FDF7F7FA01462046FAF7A4FDFBF790FCA6
:1058600010242B19204613F8106CFAF7BDFD864260
:1058700004D10134142CF4D1012070BD002070BD7E
:1058800038B5044608252846FAF7AEFD63190135F8
:105890000C2D03F8080CF6D12846FAF7A5FD0421D3
:1058A00005462046FDF7CDFA85420CD1237843B951
:1058B000637833B9A37823B9E078003018BF0120AA
:1058C00038BD012038BD002038BD38B5044610254C
:1058D0002846FAF789FD63190135142D03F8100CD9
:1058E000F6D12846FAF780FD042105462046FDF74B
:1058F000A8FA85420CD1237843B9637833B9A378E9
:1059000023B9E078003018BF012038BD012038BD30
:10591000002038BD70B5054603262846FFF7C2FEB5
:1059200040B11D491D4802F06BF9642002F0F0FD02
:10593000012400E004462846FFF752FF40B1184911
:10594000164802F05DF9642002F0E2FD0134E4B291
:105950002846FFF7CDFE40B11249104802F050F939
:10596000642002F0D5FD0134E4B22846FFF760FF61
:1059700040B10D49094802F043F9642002F0C8FD26
:105980000134E4B2012C05D8013E16F0FF06C4D163
:10599000304670BD012070BDB6360108501E002093
:1059A000C5360108D3360108E636010838B500F0DF
:1059B000DFFEFBF7E1FBFBF7DFFB0824E5B2E81FA6
:1059C000C0B2002100F0E1FEE81CC0B2002100F0EE
:1059D000DCFE20460021FAF7E5FC04F10800002176
:1059E0000134FAF7DFFC0C2CE8D1FBF7C9FBBDE86A
:1059F0003840FBF7C5BB000038B50446FFF7C6FECC
:105A000088B12046FFF79DFE68B12046FFF738FFBA
:105A100048B12046FFF759FF054620B13D493E48B1
:105A200002F0EEF82CE02046FFF7B0FE20B1204651
:105A3000FFF787FE054698B92046FFF721FF18B308
:105A40002046FFF742FF0546F0B13449324802F0E4
:105A5000D7F82046FFF726FE2046FFF749FE0FE065
:105A60002F492D4802F0CCF82046FFF7B9FE20461A
:105A7000FFF7DEFE04E02B4902F0C2F8FFF796FFC5
:105A8000642002F045FD43E02046FFF75AFE38B19E
:105A90002549214802F0B4F82046FFF729FE0AE024
:105AA0002046FFF773FE50B11B48204902F0A8F8CA
:105AB0002046FFF7F7FD2046FFF792FE0DE0204657
:105AC000FFF7DEFE68B11A49134802F099F8204644
:105AD000FFF7E8FD2046FFF70BFE2046FFF7A8FE84
