:020000040800F2
:1000000000000120B55B0008A15E0008A55E0008A5
:10001000A95E0008AD5E0008B15E0008015F00083F
:10002000015F0008015F0008015F0008015F000830
:10003000015F0008015F0008015F0008BD6800085B
:10004000015F0008015F0008015F0008B559000862
:10005000015F0008015F0008015F0008015F000800
:10006000015F0008015F0008015F0008015F0008F0
:10007000015F0008015F0008015F0008015F0008E0
:10008000015F0008015F0008795F0008015F000858
:10009000015F0008015F0008015F0008015F0008C0
:1000A000056B0008296B00084D6B0008856B000884
:1000B000D96B0008496C0008B96C0008616600083B
:1000C000796600086D66000885660008015F000813
:1000D000015F0008B16F0008057000085970000842
:1000E000015F0008FD590008015F0008E16D00088C
:1000F000056E0008296E0008616E0008C95F0008DF
:10010000015F0008015F0008296D0008015F000819
:10011000AD70000801710008996D0008BD6D000800
:10012000015F0008015F0008015F0008015F00082F
:1001300010B5054C237833B9044B13B10448AFF321
:1001400000800123237010BD9819002000000000DA
:10015000A409010808B5064B1BB106480649AFF3D0
:1001600000800648036813B1054B03B1984708BDEA
:1001700000000000A40901089C1900209819002023
:1001800000000000012902D11C30C0B270470629CE
:1001900084BF01F1FF31C9B211F0010F14BF1E205D
:1001A0001F207047444B2DE9F047B1FBF3F603FBEA
:1001B00016113C23B1FBF3F203FB12120546027049
:1001C0004FF46160B1FBF0F200FB1211B1FBF3F3ED
:1001D0006B704FF4FA63AA70B6B2EB80EC884FF400
:1001E000C873B4FBF3F803FB18481FFA88F8B8F19A
:1001F000000F16D06423B4FBF3F203FB12439BB24F
:10020000002B53D014F0030140F26D130CBF4FF4D8
:10021000B7721A4696420EDB002908BF4FF4B77337
:1002200004E0B6F5B77F06DB4FF4B773F61A013476
:10023000B6B2EC80D2E700236B716423B4FBF3F712
:1002400003FB1747BFB2B8F1000F06D03FB114F05F
:10025000030F14BF0020012002E0012000E0384617
:1002600095F80590C0B24946FFF78CFF864209F128
:10027000010A15D3B8F1000F06D03FB114F0030FF7
:1002800014BF0020012002E0012000E03846C0B287
:100290004946FFF777FF301A86B285F805A0D2E706
:1002A00001362E7185F805A0BDE8F087B6F5B67F5A
:1002B000C1DD40F26D13B9E780510100F8B5427815
:1002C00087783C2303FB072702780579467903FBEF
:1002D0000727013D013EEDB2F6B2044605714671B5
:1002E000013E731CE38834D04FF4C872B3FBF2F1C3
:1002F00002FB113292B262B16422B3FBF2F002FB54
:10030000103080B230B113F0030F14BF0020012071
:1003100000E00120C0B2F1B2FFF734FF284485B2FB
:10032000DEE74FF4C872B3FBF2F102FB113292B276
:10033000AAB16422B3FBF2F102FB113292B28AB18C
:1003400013F0030F40F26D1208BF4FF4B77215445B
:10035000ADB2013B9BB2B3F5FA6FE2D205E04FF4C8
:10036000B772F4E740F26D12F1E7024800FB057046
:10037000F8BD00BF8051010010B504462CB14FF408
:100380007A7007F08BFD013CF8E710BD10B517211E
:1003900004461622024802F025FC204610BD00BF8C
:1003A000B819002070B50F4C0E4640F4A001054668
:1003B000C1F30741204602F0A8FCC5F307212046FF
:1003C00002F0B4FCE9B2204602F0B0FC314620460F
:1003D00002F0ACFC204602F0A4FCBDE87040052011
:1003E000FFF7CABFB819002070B5114C40F4A00641
:1003F000C6F3074605463146204602F086FCC5F3A3
:100400000721204602F092FCE9B2204602F08EFC61
:10041000204602F086FC20463146012202F08AFC8A
:10042000207A20B12046BDE8704002F091BC70BD3A
:10043000B81900200148FFF7A9BF00BFB419002078
:10044000002870B503DA01241C70404201E000244A
:100450001C7042F20F73984202DD99230B701DE06D
:100460004FF47A750E4B90FBF5F503FB05036424FE
:1004700093FBF4F404F00F0646EA05150D70E4B2A0
:100480006FF0630101FB04340A2390FBF3F103FBDB
:10049000110094FBF3F4E4B240EA0413137070BD4E
:1004A00018FCFFFF0A22B0FBF2F302FB130040EA44
:1004B0000310C0B270470000D30770B548BF0132C7
:1004C0000024520802312346E5B2954225D211F8A4
:1004D000025CA5F14106F6B2052E02D8104B9B5DD9
:1004E00005E0303DEDB2092D03D80E4B5B5D1B01DD
:1004F000DBB211F8015CA5F14106F6B2052E01D878
:10050000074D04E0303DEDB2092D02D8054E755D72
:100510002B43035502310134D6E7002070BD00BFE4
:10052000A2230108982301082DE9F04781460F46D0
:1005300092460BF09BF90023C0B21D46DEB219F8BB
:1005400006402E2C0FD02C2C05D1013EC8EB060600
:100550008AF8006008E014B97C55BDE8F0876A1C91
:100560007C55D5B200E0B0460133DAB28242E5D91B
:10057000BDE8F0872DE9F04F824687B00846144663
:10058000994608F0EFFFC9EB0406CDE900013046BB
:1005900008F0D6FF02460B4600204D4907F092FDB9
:1005A00002460B46DDE9000109F0B6FA30B94FF01A
:1005B000020896FBF8F80546013E07E05046002188
:1005C000224607B0BDE8F04F0AF0ECBC454536DAEC
:1005D000304608F0B5FF02460B4600203C4907F0C4
:1005E00071FDCDE90201701E08F0AAFF02460B461C
:1005F0000020374907F066FDDDE90223CDE904015B
:10060000DDE9000109F02CF909F09AFADDE904238B
:100610000A2790FBF7FB0BFB17004FEA001BDDE9F5
:10062000000109F01DF909F08BFA90FBF7F303FBC9
:10063000170083440AF805B0023E0135C6E709EB0E
:1006400048094FF0020BC4EB090994FBFBFB09F1CD
:100650000109D84538DA484608F072FF02460B46D1
:1006600000201B4907F02EFD064609F101000F4648
:1006700008F066FF02460B460020154907F022FDF0
:1006800032463B4604460D46DDE9000108F0BEFF58
:1006900009F056FA0A2690FBF6F707FB16002B46E0
:1006A00007012246DDE9000108F0B0FF09F048FA31
:1006B00090FBF6F303FB160007440AF8087009F1F3
:1006C000020908F10108C4E707B0BDE8F08F00BFD8
:1006D000000024402DE9F84307460D46904601EB03
:1006E00003090C464C4507D0C5EB08032046195DAD
:1006F000BE68B0470134F5E7BDE8F8832DE9F04165
:1007000006460D46174601EB03080C46444506D045
:100710002046F16888477B1B18550134F6E7BDE891
:10072000F081016800F110021023FFF7D3BF0168C8
:1007300000F110021023FFF7E1BF8160C260704733
:1007400010B5016010314160DB21017400210446C5
:1007500041618361C261FFF7E4FF207CDB3818BF91
:10076000012010BD08B5016010314160FFF7DFFFC7
:10077000002008BD10B583694468013903FB0141BD
:10078000FFF7A8FF002010BD10B559B14369994289
:1007900008D883694468013903FB0141FFF7AEFFC4
:1007A000002010BD022010BD38B543690A46591C0F
:1007B000C3690446A3F110058369B5FBF3F39942BD
:1007C00007D84161FFF7D6FF2046FFF7AAFF0020B8
:1007D00038BD032038BD4069704710B50446FFF7A7
:1007E000A6FF20462168E269A369BDE81040FFF733
:1007F000A7BF436910B501333B2B01DC43610BE01C
:100800000269002301323B2A436101DC026103E0FB
:100810000361C3680133C360C36803F10802172A88
:1008200001DCC26010BD103BC3604368826823F0E6
:10083000040101320229826005D0042B03D023F089
:100840000201092901D11E2A00E01F2A03DD01222D
:100850001344826043600368826813F0030F16D16B
:100860004FF4C87193FBF1F401FB143129B16421F9
:1008700093FBF1F401FB143149B11D2A09DD4268F3
:10088000022A06D1012282600322426001E01C2A72
:10089000F4E742680C2A03DD0C3A0133426003603E
:1008A00010BD10B58B68044607F048F9204610BD0E
:1008B00070B58CB004460D4603A8264906F09AFF91
:1008C0002046002107F0D0F803784E2B07D12046B0
:1008D000012107F0C9F803784F2B00F08F811E49E2
:1008E00006A806F087FF06A9204607F000F90022B7
:1008F0000346214609A807F021F909A903A806F033
:10090000C6FF09A806F034FF06A806F031FF03A8C9
:1009100007F0E9F9104906A806F06CFF06A9204681
:1009200007F0E5F82146421C09A8FFF7BAFF09A91C
:10093000204606F0ACFF09A806F01AFF06A806F04C
:1009400017FF2046002107F08FF803782D2B05D1E3
:10095000012604E0C2260108E6260108002685F8E3
:100960005260A94906A806F045FF06A9204607F0EF
:10097000BEF832460346214609A807F0DFF809A968
:1009800003A806F084FF09A806F0F2FE06A806F008
:10099000EFFE059A0023013205F1310103A807F0AB
:1009A00071F803A807F0A4F99749E86106A806F0D2
:1009B00021FF06A9204607F09AF82146421C09A803
:1009C000FFF76FFF09A9204606F061FF09A806F0AE
:1009D000CFFE06A806F0CCFE0021204607F044F822
:1009E000037889492D2B0CBF0126002685F851601C
:1009F00006A806F0FFFE06A9204607F078F8324662
:100A00000346214609A807F099F809A903A806F0AA
:100A10003EFF09A806F0ACFE06A806F0A9FE059A5E
:100A20000023013205F1210103A807F02BF803A8E8
:100A300007F05EF97449A86106A806F0DBFE06A976
:100A4000204607F054F82146421C09A8FFF729FF69
:100A500009A9204606F01BFF09A806F089FE06A892
:100A600006F086FE684906A806F0C4FE06A92046E0
:100A700007F03DF800220346214609A807F05EF87A
:100A800009A903A806F003FF09A806F071FE06A84D
:100A900006F06EFE03A807F026F95B49C5F8800052
:100AA00006A806F0A7FE06A9204607F020F8214672
:100AB000421C09A8FFF7F5FE09A9204606F0E7FE4B
:100AC00009A806F055FE06A806F052FE4E4906A8F3
:100AD00006F090FE06A9204607F009F8002203461A
:100AE000214609A807F02AF809A903A806F0CFFEB5
:100AF00009A80A2606F03CFE06A806F039FE324692
:100B0000002168460AF04EFA03A86946092200232C
:100B100006F0B8FF9DF800309DF80120303B06FB41
:100B2000032303F5F4632B609DF803209DF8043044
:100B3000303A303B06FB02339DF806206B609DF88F
:100B40000730303A303B06FB02332F49AB6006A832
:100B500006F050FE06A9204606F0C9FF2146421CB9
:100B600009A8FFF79EFE09A9204606F090FE09A8F5
:100B700006F0FEFD06A806F0FBFD234906A806F0D8
:100B800039FE06A9204606F0B2FF002203462146A0
:100B900009A806F0D3FF09A903A806F078FE09A862
:100BA00006F0E6FD06A806F0E3FD0021092209A8EB
:100BB0000AF0F8F903A80922002309A906F062FF48
:100BC0009DF824209DF82530303A303B06FB023357
:100BD0009DF82720EB609DF82830303A303B06FB2B
:100BE00002339DF82A202B619DF82B30303A303BA0
:100BF00006FB023628466E61FFF7FBFD03A806F0F0
:100C0000B7FD0CB070BD00BFE626010870B58EB010
:100C100004460D4601A88E4906F0ECFD2046002151
:100C200006F022FF0378312B06D12046022106F080
:100C30001BFF0378312B01D0002446E2854907A829
:100C400006F0D8FD07A90022204606F041FF0AAEB3
:100C5000421C21463046FFF724FE3146204606F06E
:100C600016FE304606F084FD07A806F081FD79499E
:100C700007A806F0BFFD07A90022204606F028FFBE
:100C80002146421C3046FFF70CFE3146204606F056
:100C9000FEFD304606F06CFD07A806F069FD6D49C3
:100CA00007A806F0A7FD07A90022204606F010FFBE
:100CB000002203462146304606F040FF314601A897
:100CC00006F0E5FD304606F053FD07A806F050FD9E
:100CD000039A002301A83146013206F0D3FE002317
:100CE000F25C303AF25401330E2BF9D19DF82930E1
:100CF000642253439DF828104FF47A7202FB0132AC
:100D00009DF82A100A2303FB01229DF82B1004A84A
:100D10000A44EA629DF82C109DF82D2003FB012265
:100D20009DF82E102A639DF82F2003FB01229DF8C9
:100D300030106A639DF8312003FB01229DF83210C8
:100D4000AA639DF8332003FB01229DF83410EA6367
:100D50009DF8352003FB01233E492B6406F04AFD34
:100D600004A90022204606F0B3FE2146421C07A833
:100D7000FFF797FD07A9204606F089FD07A806F0B2
:100D8000F7FC04A806F0F4FC2046002106F06CFEF7
:100D900003782D2B0AD101262E4985F8286004A856
:100DA00006F028FD204604A9002209E00026294972
:100DB00085F8286004A806F01DFD204604A93246E7
:100DC00006F086FE32460346214607A806F0B6FE28
:100DD00007A901A806F05BFD07A806F0C9FC04A856
:100DE00006F0C6FC039A0023013205F1080101A8B0
:100DF00006F048FE01A806F07BFF1649286004A80B
:100E000006F0F8FC04A90022204606F061FE214607
:100E1000421C07A8FFF745FD07A9204606F037FD4D
:100E200007A806F0A5FC04A806F0A2FC20460021B5
:100E300006F01AFE03782D2B0ED10126054985F800
:100E4000296004A806F0D6FC204604A900220DE083
:100E5000C2260108E626010800269F4985F8296078
:100E600004A806F0C7FC204604A9324606F030FE6E
:100E700032460346214607A806F060FE07A901A8EE
:100E800006F005FD07A806F073FC04A806F070FC48
:100E9000914904A806F0AEFC04A90022204606F001
:100EA00017FE00220346214607A806F047FE07A9C1
:100EB00001A806F0ECFC07A806F05AFC04A806F00E
:100EC00057FC039A0023013205F1180101A806F02E
:100ED000D9FD01A806F00CFF7F49686004A806F060
:100EE00089FC04A90022204606F0F2FD2146421C9E
:100EF00007A8FFF7D6FC07A9204606F0C8FC07A8FC
:100F000006F036FC04A806F033FC734904A806F08A
:100F100071FC04A90022204606F0DAFD00220346F7
:100F2000214607A806F00AFE07A901A806F0AFFCB3
:100F300007A806F01DFC04A806F01AFC039A00237B
:100F4000013205F1500101A806F09CFD01A806F050
:100F5000CFFE08F007FBC5E912015F4904A806F0BF
:100F600049FC04A90022204606F0B2FD2146421C9D
:100F700007A8FFF796FC07A9204606F088FC07A8FB
:100F800006F0F6FB04A806F0F3FB534904A806F0AC
:100F900031FC04A90022204606F09AFD00220346F7
:100FA000214607A806F0CAFD07A901A806F06FFCB4
:100FB00007A806F0DDFB04A806F0DAFB039A00237D
:100FC000013205F1640101A806F05CFD01A806F0FC
:100FD0008FFE4149286604A806F00CFC04A90022F3
:100FE000204606F075FD2146421C07A8FFF759FC74
:100FF00007A9204606F04BFC07A806F0B9FB04A899
:1010000006F0B6FB344904A806F0F4FB04A900225C
:10101000204606F05DFD00220346214607A806F0A3
:101020008DFD07A901A806F032FC07A806F0A0FB79
:1010300004A806F09DFB039A01A805F1780101328E
:10104000002306F01FFD01A806F052FE082668677F
:10105000214904A806F0CEFB04A90022204606F090
:1010600037FD2146421C07A8FFF71BFC07A92046B5
:1010700006F00DFC07A806F07BFB04A806F078FB41
:10108000013EE5D1144904A806F0B4FB204604A9AA
:10109000324606F01DFD32460346214607A806F0FB
:1010A0004DFD07A901A806F0F2FB07A806F060FBBA
:1010B00004A806F05DFB01A806F015FE85F888007F
:1010C00005F12C00FFF795FB012401A806F050FB69
:1010D00020460EB070BD00BFE626010810B5FF2304
:1010E00001441A46884208D010F8014B5440044A83
:1010F000125D5A40034B1B5DF4E743EA022010BD2A
:101100000C0000200C01002008B51A4B06201A68BC
:10111000022122F0E06242F000721A6006F002FE44
:101120000720022106F0FEFD1920002106F0FAFD3D
:101130001820002106F0F6FD0520002106F0F2FD42
:101140000820002106F0EEFD0420002106F0EAFD53
:101150001520002106F0E6FD2520032106F0E2FD22
:101160001120032106F0DEFDBDE808400520002126
:1011700006F03EBE040001401520002106F038BEF6
:101180001520012106F034BE2DE9F041431E86B042
:10119000642B044600AF04D810F0010F08BF0B24E5
:1011A00000E00B24A3000A3323F00703ADEB030D8B
:1011B00004F1FF386D460026252006F0F5FD45F8C0
:1011C00026000136F3B2A342F6D300210022D3B2A7
:1011D00043450CDA5E1C55F823E055F82600013231
:1011E000864584BF45F826E045F82300EFE7013146
:1011F000CBB2A342EAD30134641055F8240008F0BE
:10120000EDFD08F0AFF918A3D3E9002308F0FEF9CB
:1012100008F0DEFC164908F039FE08F0ADFF15496C
:101220000446384606F0E6FA394607F10C0006F0A7
:1012300024FB214607F10C0006F0E2FB0E4906F004
:10124000CDFB01460D4806F089F907F10C0006F0C8
:101250008FFA384606F08CFA20461837BD46BDE8AE
:10126000F08100BFAFF300800F0BB5A679C7E93F4F
:101270000000C040A8230108BB230108501E002025
:1012800008B50021042006F0B3FD4FF47A7006F093
:10129000F7FD0420012106F0ABFDBDE808404FF446
:1012A000FA7006F0EDBD000008B5032004F062FB03
:1012B0000348044906F05CF9BDE8084005F022BA8D
:1012C000501E0020BE23010838B5074C05462046B5
:1012D00004F06DFA054B42195D6020460449BDE8F3
:1012E000384004F066BA00BFC8190020A41C0020D2
:1012F000A91200080148112104F04DBAC8190020B4
:1013000070470120704701207047000070B5094DFB
:10131000094C064622782978084801F063FC2878B1
:10132000012106F065FD2078012106F061FD3046BF
:1013300070BD00BF0C0200200D020020781A0020B2
:1013400010B5064C204601F0E0FC204601F0E9FC17
:10135000D0F1010038BF002010BD00BF781A002076
:1013600010B54A2104460548FFF7EAFF28B1236873
:1013700020461B6801219847012010BD881A0020D3
:1013800070B5094C154620461E4601F0BEFC2946A4
:10139000204601F0CBFC2046314601F0C7FC204638
:1013A000BDE8704001F0BDBC781A0020F8B51348C4
:1013B00014461E460F469DF8185001F0A6FC214623
:1013C0000E4801F0B3FC0D4801F0ABFC0B4CA5B18D
:1013D0002A462046394601F0ADFC0022237A551CEE
:1013E00033B10648D7B201F0B3FC2A46F055F5E711
:1013F0000248BDE8F84001F094BCF8BD781A00201E
:10140000F0B51C4685B0012300930DF10F0315467E
:1014100007460E46FFF7CAFF9DF80F309DF82820BB
:1014200023EA040314402343384631462A468DF804
:101430000F30FFF7A5FF05B0F0BD000013B5002485
:1014400071B1012213460B484A210094FFF7D8FFDF
:101450004A210094074802224023FFF7D1FF802150
:10146000009104484A2102228023FFF7C9FF02B0FD
:1014700010BD00BF881A002008B51E220F481F218A
:1014800001F0B0FB38210D4801F03FFC06210B486C
:1014900001F04CFC094801F044FC4FF4FA7006F0EE
:1014A000EFFC0748FFF75CFF10B10648064901E072
:1014B00004480649BDE8084006F05AB8681B0020F9
:1014C000D4190020501E002048240108612401087E
:1014D00070B5084C054620460E4600F0C7FC08F0E3
:1014E0004BFE3060642006F0CBFC204600F0D0FCC0
:1014F000286070BD8C1A0020F0B5334C85B00546CD
:101500000E46FFF7B9FF39210122204601F012FCF7
:10151000012006F0B5FC277A1FB1204601F018FC27
:10152000074638210122284801F004FC012006F07A
:10153000A7FC207A10B1244801F00AFC40EA0720F9
:1015400007F0EEFF1EA3D3E9002308F05FF808F0D0
:101550001FFB1E4930601E4805F0EFFF31680A226C
:101560001B4806F0A4F8022300931A4803AB4A2153
:101570000322FFF71BFF9DF80D209DF80C3002F0B1
:101580000F0242EA03122D21D2B24A431B0902FA8A
:1015900003F34FF47A72B3FBF2F32B600E490C485D
:1015A00005F0CBFF29680A22094806F08AF80B49A2
:1015B000074805F0DDFF05B0F0BD00BFAFF30080C8
:1015C0000AD7A3703D0A773F681B00207A240108E0
:1015D000501E0020881A002080240108972401084A
:1015E00008B50348FFF792FE024A034B1A6008BD94
:1015F000881A0020E0230108D4190020F0B5424ADF
:101600008DB00E4607465168106801AB03AD03C3A9
:101610000CAC09220021284609F0C4FC04F82C6D0A
:1016200020460621FFF75AFD030A8DF80B003748C4
:101630008DF80A30036821469B68082298474FF4CA
:10164000967006F01DFC0024304805F019FE0028B5
:10165000E6B20DDD082C05D12D482E4905F088FF96
:10166000002605E0294805F0B7FD28550134EBE7D1
:101670002748294905F07CFF002E31D1274924480D
:1016800005F076FF2449224805F072FF284605211F
:10169000FFF724FD9DF811209DF8123043EA022344
:1016A00083422BD19DF810309DF80F401C4906A8AD
:1016B00043EA042406F09EF806A909A806F0DDF81E
:1016C000214609A806F09CF90146114805F046FF9D
:1016D00009A806F04DF806A806F04AF83C6011E0AB
:1016E0000024B442CAD2295D1022094805F0CDFF7A
:1016F00007480C4905F021FF0134F2E704480A4984
:1017000005F036FF0DB0F0BD00240108801E00205A
:10171000501E00209C240108BD240108C226010897
:10172000D92401088D2F0108E42401082DE9F04394
:101730000F464F4987B0804608684968164603AD92
:1017400001AA994603C206AC0A220021284609F0E4
:1017500029FC04F8149D20460621FFF7BFFC030A6C
:101760008DF80B0043488DF80A30036821469B68CA
:10177000082298474FF4967006F082FB00243D48FB
:1017800005F07EFD00285FFA84F90EDD092C06D1F4
:1017900039483A4905F0ECFE4FF0000905E03548BC
:1017A00005F01AFD28550134E9E73348344905F0BE
:1017B000DFFEB9F1000F14D132492F4805F0D8FEF1
:1017C0002D482F4905F0D4FE9DF80C30BBB90DF122
:1017D0000D000721FFF782FC9DF814209DF81530BD
:1017E00015E000244C45E7D2295D1022224805F07F
:1017F0004CFF2148244905F0A0FE0134F2E72846B9
:101800000721FFF76BFC9DF813209DF8143043EA85
:10181000022383421CD19DF80C209DF810009DF8F6
:1018200011409DF8123032B944EA00209DF813406F
:1018300044EA032405E09DF80F2043EA042440EA2B
:10184000022008F0CBFA114908F0D4FBE30B07E0C3
:1018500009480F4905F08CFE0E4800234FF6FF742F
:10186000C8F800003C60337007B0BDE8F08300BFEB
:1018700008240108801E0020501E002004250108B5
:1018800025250108C22601088D2F010800002041EE
:101890004125010800FF7F472DE9F0410F463B49F4
:1018A00086B080460868496801AB03AD03C306AC47
:1018B000164600210A22284609F074FB04F8146D2C
:1018C00020460621FFF70AFC030A8DF80B0030487A
:1018D0008DF80A30036821469B68082298474FF428
:1018E000967006F0CDFA0024294805F0C9FC0028BE
:1018F000E6B20DDD092C05D12648274905F038FE52
:10190000002605E0224805F067FC28550134EBE786
:101910002048224905F02CFE1EBB21491D4805F038
:1019200027FE1E491B4805F023FE28460721FFF726
:10193000D5FB9DF813209DF8143043EA022383421F
:101940001DD19DF80F209DF810309DF8111043EA2D
:1019500002239DF8122042EA0122C8F800203B60D1
:1019600011E00024295D10220A4805F08EFE0134A2
:1019700008480C4905F0E1FD092CF3D1CDE70548F5
:10198000094905F0F5FD06B0BDE8F0811024010815
:10199000801E0020501E00207D250108A125010881
:1019A000C22601088D2F0108C025010810B50121AC
:1019B00086B0A64C082006F01BFA40F2DC5006F078
:1019C0005FFA04F18C0204F1880104F19000FFF742
:1019D0007FFD4FF4FA7006F053FA04F1940104F11C
:1019E0008000FFF789FD4FF4FA7006F049FA0123F1
:1019F00004F1280104F12C0204F12400FFF796FE03
:101A00004FF4FA7006F03CFA012204F1340104F1BB
:101A10003000FFF741FF4FF4FA7006F031FA04F19D
:101A200038000221FFF7EAFD89498A4805F0A0FD48
:101A30006846894905F0DEFE694603A805F01DFFEA
:101A4000D4F8881003A805F0DBFF844905F0C6FF31
:101A50000146804805F082FD03A805F089FE68462E
:101A600005F086FE68467E4905F0C4FE694603A877
:101A700005F003FFD4F8901003A805F0D5FF7949CD
:101A800005F0ACFF0146734805F068FD03A805F0BA
:101A90006FFE684605F06CFE6846734905F0AAFEC5
:101AA000694603A805F0E9FED4F8801003A805F004
:101AB000B1FF6E4905F092FF0146664805F04EFD04
:101AC00003A805F055FE684605F052FE68466849D1
:101AD00005F090FE694603A805F0CFFED4F89410F7
:101AE00003A805F08DFF634905F078FF01465948CA
:101AF00005F034FD03A805F03BFE684605F038FE0E
:101B000068465D4905F076FE694603A805F0B5FE16
:101B1000A36A0A21B3FBF1F103A805F071FF4F4955
:101B200005F05CFF01464B4805F018FD03A805F0E1
:101B30001FFE684605F01CFE6846504905F05AFE37
:101B4000694603A805F099FE616A03A805F06CFFD9
:101B5000444905F043FF01463E4805F0FFFC03A859
:101B600005F006FE684605F003FE6846444905F0A8
:101B700041FE694603A805F080FE616B03A805F0ED
:101B80003FFF404905F02AFF0146324805F0E6FCD8
:101B900003A805F0EDFD684605F0EAFD68463A4900
:101BA00005F028FE694603A805F067FE216B03A82F
:101BB00005F026FF354905F011FF0146254805F0DF
:101BC000CDFC03A805F0D4FD684605F0D1FD6846BC
:101BD0002F4905F00FFE694603A805F04EFEA06BE5
:101BE00008F0FCF82B4908F005FA014603A805F0B7
:101BF0001BFF294905F0F2FE0146164805F0AEFC30
:101C000003A805F0B5FD684605F0B2FD104911487E
:101C100005F0AEFC72B64FF4A0612048FEF7A2FDBD
:101C20001E48FEF7D8FD62B650B11D4B1B689842A6
:101C300006D203F071FC03F0D5FC1A4B01221A7492
:101C40000349044805F094FC06B010BDD8190020E3
:101C5000C2260108501E002011260108F0250108A7
:101C600025260108F5250108FA2501089724010811
:101C700000260108052601080B2601081F26010879
:101C8000302601083D260108432601085026010898
:101C9000572601080000C8428D2F0108D01D0020E2
:101CA00018020020A41C00202DE9F84300240F4650
:101CB0009046994625464C4513DA5FFA88F601218D
:101CC000304606F095F80A2006F0DAF8F8B206F089
:101CD00079F8002100EB4505304606F089F801341B
:101CE000E9E72846BDE8F88370B5D4B21D46EDB2E9
:101CF0000E462046002106F015F82846002106F081
:101D000011F82046012106F073F82846012106F05B
:101D10006FF82046002106F06BF82846002106F0F7
:101D200067F82846012106F063F82046012106F0F5
:101D30005FF82846002106F05BF8F3B20122204646
:101D4000294606F06BF82846012106F051F8204696
:101D5000022105F0E7FF204606F034F8284600216E
:101D600006F046F82046BDE8704006F02BB838B5BE
:101D7000CDB22846022105F0D5FF64240A2006F0E2
:101D80007FF8284606F01EF808B1013CF6D138BDB0
:101D90002DE9F843CCB2154680460E46EFB22046F8
:101DA000022105F0BFFF3846002105F0BBFF2A469F
:101DB000082331464046FFF777FF00214FEA00290C
:101DC000204605F0AFFF2046012106F011F820461D
:101DD000002106F00DF83846012106F009F83846D2
:101DE000002106F005F82046022105F09BFF404641
:101DF00031462A460823FFF757FF49EA0000BDE8AD
:101E0000F88338B51446CDB2E4B22846002105F077
:101E100089FF2046002105F085FF2846012105F0B5
:101E2000E7FF2046012105F0E3FF20460021BDE841
:101E3000384005F0DDBF38B590E80C0004460321BA
:101E4000FFF752FF20462168FFF791FF94E8060054
:101E50002046FFF79DFF94E8060005462046FFF761
:101E6000D0FF284607F0BEFF38BD000008B5FFF7D9
:101E7000E2FF08F05BF907F0B5FF034908F006F848
:101E8000024907F0F9FE08BD0AD7233C00002042B2
:101E9000F8B590E80C0004460521FFF725FF204621
:101EA0002168FFF764FF94E806002046FFF770FF03
:101EB00094E8060005462046FFF7A3FF284607F0F2
:101EC00091FF1E49064607F0E1FF4FF0814107F000
:101ED000D3FE1B490546304607F0D8FF314607F0D0
:101EE000D5FF0146284607F0C9FE07462046FFF702
:101EF000BDFF07F037FB0022124B07F0D3F9044671
:101F00000D463046104907F0C1FF104907F0B6FEF4
:101F100007F028FB02460B462046294607F076FBD1
:101F2000044638460D4607F01DFB02460B46204688
:101F3000294607F0B9F907F04BFEF8BD54E3253DFB
:101F4000A2E73BB600003940ACC5A7380AD7233C0E
:101F5000024B1D211C2283E8060070478C1A0020CA
:101F600013B5026802AB03F8011D546A1946012239
:101F7000A04702B010BD07B503680DF107019B6AC9
:101F80000122984701280CBF9DF807004FF0FF3051
:101F900003B05DF804FB4FF0FF30704708B50369EC
:101FA000186803689B69984708BD036810B5DB682B
:101FB0000446984708B9207F10BD012010BD08B520
:101FC00003681B6B9847003018BF012008BD000054
:101FD000F0B585B00C460646194901A81746194DBB
:101FE00005F008FC01A8102105F0E0FB217901A80B
:101FF00005F09EFC294601A805F07EFC617901A848
:1020000005F096FC294601A805F076FCA17901A807
:1020100005F08EFC294601A805F06EFCE17901A8C7
:1020200005F086FC336801991B6A3A4630469847AA
:10203000044601A805F09CFB204605B0F0BD00BF9A
:10204000C22601083930010808B50B4B1920197850
:1020500081F00101197005F0CBFE084B1A680132BE
:10206000B2F5967F01D21A6008BD00221A6072B6DE
:10207000BDE8084004F046BBA01A0020641B002005
:1020800010B5044620680368DB68984710B905F06E
:10209000F7FEF7E7206803681B6998472C28F1D101
:1020A000012010BD2DE9F04F054687B08A46104645
:1020B00040211E461446129F05F078FB8F4BD3F843
:1020C00000B0002005F0DCFE28680368DB68984754
:1020D000002840F3E480286803681B699847011EC4
:1020E000F2DD2046C9B205F016FC16B9109BA3B963
:1020F00010E0314603A805F07DFB204603A905F05A
:102100009DFC814603A805F033FBB9F1000FEDD02B
:102110000120EFE0119B9BB910E0109903A805F096
:1021200069FB204603A905F089FC814603A805F058
:102130001FFBB9F1000FEDD00220DBE0A7B910E0E2
:10214000119903A805F056FB204603A905F076FC7B
:10215000814603A805F00CFBB9F1000FEED0032077
:10216000C8E0139B0BBB10E0394603A805F042FB07
:10217000204603A905F062FC814603A805F0F8FAA1
:10218000B9F1000FEDD00420B4E05D4903A805F0DB
:1021900031FB204603A905F051FC814603A805F058
:1021A000E7FAB9F1000F11D139E0139903A805F04E
:1021B00021FB204603A905F041FC814603A805F058
:1021C000D7FAB9F1000FE0D0052093E068462968FE
:1021D0002C2205F0A5FA684605F085FD0128814608
:1021E00015D129680A2203A805F09AFA03A805F078
:1021F0007AFD804603A805F0BBFA2046414905F068
:102200004EFB05EB88035B6883F81D9003E02046D6
:10221000694605F06CFB684605F0AAFA54E73A49AE
:1022200003A805F0E7FA204603A905F007FC80465D
:1022300003A805F09DFAB8F1000F3FF445AF33490C
:1022400003A805F0D7FAA26803A9083A204605F0CA
:1022500051FC804608F1020803A805F089FA4246BD
:102260002C21204605F026FC42460346214603A8C1
:1022700005F064FC03A805F036FD804603A805F0D0
:1022800077FAB8F1000F3FF41FAF05EB88035B68E6
:10229000204683F81C901B4905F001FB14E7174BFF
:1022A0001B68CBEB03035345FFF40BAF204605F04F
:1022B000F0FCA368CBB12146684605F0DEFA14496C
:1022C000144805F03AF92021124805F031F9694621
:1022D00003A805F0D2FA03A90E4805F03FF903A8B8
:1022E00005F046FA684605F043FA2046054905F030
:1022F000D6FA0020C0B207B0BDE8F08FAC1F0020B6
:10230000AD260108C2260108BA260108C026010828
:10231000C3260108501E0020F0B589B01C460746B0
:102320000E4605A80B49154605F064FA00940E9C6C
:10233000314601940F9C05AA0294109C2B460394ED
:102340003846FFF7AFFE044605A805F011FA20460F
:1023500009B0F0BDC2260108F0B5044685B00E46AE
:10236000006821491F46154605F0E7F820681F4917
:1023700005F0E3F80A223946206805F086F920685E
:102380002C2105F0D5F82068194905F0D6F8206809
:10239000184905F0D2F83146206805F0CEF82068DB
:1023A000154905F0CAF80A222946206805F04CF9BB
:1023B0001249206805F0C1F8206803689B699847B6
:1023C000002005F05DFD0E4B204600930023019395
:1023D00002930C490C4A0D4BFFF79EFF431E5842D7
:1023E000584105B0F0BD00BFD2260108D52601082E
:1023F000E0260108CF2E0108E5260108C0260108C5
:1024000004270108F8240100E8260108F526010840
:1024100070B5044600200E46154605F031FD002338
:10242000C4F8A430C4F8A030206931462A46237D80
:10243000FFF792FF003018BF0120207770BD7FB5F5
:10244000089C0E460194099C1546009302944FF493
:102450007A7132462B46FFF75FFF04B070BD000073
:1024600008B50D48012104F0CDFF1920002105F029
:10247000BFFC1820002105F0BBFC0021052005F061
:10248000B7FC012004F04CF9012004F063F9BDE829
:10249000084004F04BB900BF481F002008B50B20CE
:1024A000FEF772FE40F6E343984208D81C491D48E7
:1024B00005F05EF8642005F0E3FCFFF7D1FF02F0C1
:1024C000EFFC40B91849174805F052F8642005F0B0
:1024D000D7FCFFF7C5FF02F05FF940B91349114877
:1024E00005F046F8642005F0CBFCFFF7B9FF01F0DA
:1024F0006DFC50B10E490B4805F03AF8642005F028
:10250000BFFCBDE80840FFF7ABBF0A49054805F02E
:102510002FF8642005F0B4FCBDE8084004F0F2B8E0
:1025200016270108501E00203827010872270108CD
:10253000B2270108F627010810B5072005F042FC74
:10254000C8B90121192005F053FC4FF47A7003F04B
:10255000F5F8072005F036FC044660B9064B012269
:10256000064907481A7005F003F821461920BDE80E
:10257000104005F03DBC10BD811B0020342801082F
:10258000501E002010B5062005F01CFC10BB0121D8
:10259000192005F02DFC4FF47A7003F0CFF80620D7
:1025A00005F010FC0446A8B9FEF7E6FD4FF4A06163
:1025B0000948FEF7D7F80848FEF70FF9FEF7E0FDE7
:1025C0000649074804F0D4FF21461920BDE8104011
:1025D00005F00EBC10BD00BFD01D00205128010821
:1025E000501E002008B5FEF78FFD2D484FF4E13155
:1025F00004F0A4FE2B484FF4165104F09FFE4FF454
:102600001651294804F09AFE40F6B83005F038FC1F
:1026100003F05AFD2549224804F0AAFFB420FEF732
:1026200053FE23491E4804F0A3FF0B20FEF7ACFD28
:1026300040F6E343984208D81E49194804F098FF31
:10264000642005F01DFCFFF70BFF1B4802F088FE1D
:102650001A49134804F08CFFFFF76EFFFFF792FF53
:1026600002221748012104F0B6FE1649144804F06E
:1026700093FE01210A46124804F0B1FE124A1048A6
:10268000012104F0BBFE1149054804F071FF044824
:102690000F4904F06DFFBDE80840FFF787B900BFA0
:1026A000501E0020801E0020681E0020692801089E
:1026B0007C28010816270108201C00209528010805
:1026C000481F002040420F0049200008AA280108A6
:1026D000C428010870B504460D4600680C4916462A
:1026E00004F02BFF2946206804F027FF31460A2218
:1026F000206804F0CAFF2068064904F01EFF206825
:1027000003689B699847BDE87040002005F0B8BB9E
:10271000D2260108C026010813B50446002005F0A2
:10272000AFFB2069227D0749FFF7D4FF0023237701
:102730000093019320690449044AFFF780FE02B028
:1027400010BD00BFE3280108A82601085A29010886
:10275000F0B50F4687B00025044626493A46FFF7F4
:10276000B9FF0095019520462349244A2B46FFF7DF
:1027700066FE01281AD12046FFF782FC2046FFF7AB
:102780007FFC21680A2203A804F0CAFF03A805F011
:10279000AAFA064603A804F0EBFF0095019520462F
:1027A0001749164A2B46FFF74AFEFEB904EB87038A
:1027B0003A46204613495E68FFF78CFF124B00250E
:1027C00000931249124A134B01952046FFF737FE3A
:1027D0002B4607460095019520460949074AFFF711
:1027E0002EFE7B1E5F425F4137772E46304607B094
:1027F000F0BD00BFEE280108AF2601085A290108E4
:10280000A8260108FB280108292901080729010831
:10281000142901081E2901087FB50546002405EB8F
:1028200084035E6846B1737F33B100237377284613
:10283000E1B2FFF78DFFF0820134052CEFD128685B
:102840000368DB68984748B1002200920192029227
:1028500028460A211346FFF75FFDF0E704B070BD7C
:10286000D0F88020D0F88430D01A48BF803070472C
:1028700038B50446002005F003FB237F04F1200552
:102880008BB12846FFF7ECFF68B90A4BA2691968BB
:102890008A1AB2F5FA7F03D91B6801226277A36115
:1028A0002069FFF7B9FF2846FFF7DAFFE38A1844EB
:1028B00038BD00BFAC1F00202DE9F04104460E4694
:1028C000006812491F469046069D04F036FE3146C8
:1028D000206804F032FE41460A22206804F0D5FE4A
:1028E0003946206804F024FE29460A22206804F0B4
:1028F000D5FE2068064904F020FE206803689B6925
:102900009847BDE8F041002005F0BABAD226010888
:10291000C0260108F0B587B00025044600920F4696
:1029200016461C491A462C23FFF7C6FF0095019551
:1029300020461949194A2B46FFF781FD012802D08C
:102940004FF0FF3422E020683946036832469B6826
:102950009847206803689B69984700950195204631
:102960000F490E4A2B46FFF76AFD0128E8D12046A1
:10297000FFF786FB216803A80A2204F0D1FE03A812
:1029800005F0B1F9044603A804F0F2FE204607B0B2
:10299000F0BD00BF34290108C62901085A290108E1
:1029A0003E29010870B5044600200E46154605F084
:1029B00067FA2069FFF730FF206931462A46237DF8
:1029C000FFF7A8FF70BD00002DE9F04186B000259B
:1029D000044600912C232F491646FFF76DFF009502
:1029E000019520462C492D4A2B46FFF728FD01284A
:1029F0004BD12046FFF744FB2046FFF741FB2168FF
:102A00002C2203A804F08CFE03A805F06CF90746FD
:102A100003A804F0ADFE04EB860603A821680A2291
:102A2000D6F8048004F07CFE03A805F05CF9A8F851
:102A3000160003A804F09CFEBD421ED02068036867
:102A4000DB68984710B905F01BFAF7E720680368C0
:102A50001B69984773685FFA80FED3F8A010D3F81B
:102A6000A4004A1C02F07F02824204D0194481F87B
:102A700020E0C3F8A0200135DEE700230093019396
:102A800020460749054AFFF7DAFC284606B0BDE8AC
:102A9000F08100BF4D290108AF2601085A2901081D
:102AA000A82601082DE9F74F044600208946019227
:102AB00005F0E6F92069FFF7AFFE0025019B9D4276
:102AC00045D2019B04F1200B5846C5EB0308FFF7E4
:102AD000C7FE404538BF8046B8F1000F24D04746B6
:102AE000CA465846FFF7BCFE10B9C1444544E5E765
:102AF000D4F8A430C3F18006B742B8BF3E46864240
:102B0000A8BF06460BEB030150463246009308F07F
:102B10006DF9009BBF1B03EB060C0CF07F02C4F8A1
:102B2000A420B244E1D0DCE72069FFF775FEE38A18
:102B30006BB1D4F8A420D4F8A0302069D11A0029B0
:102B4000D8BF80310139227DFFF73EFFB6E7284626
:102B500003B0BDE8F08F000013B5002422462346E1
:102B6000009421460D4804F0A3FC0D4B0D4A0E487D
:102B70001A604FF47A7282600C4A4460026001224B
:102B8000C0F8A440C0F8A04003610275C48284610B
:102B900004774477986002B010BD00BF981A0020F7
:102BA0004C1B0020681E0020A41A0020702601087B
:102BB0000A4B1A680A4B9B6800BF00BF07490968A7
:102BC0008A42F5D1C3F58C33482103F5A073B3FBDA
:102BD000F1F34FF47A7000FB02307047AC1F002015
:102BE00010E000E010B5044680E80600D0B20021F5
:102BF00005F098F82078002105F094F8002320795A
:102C0000E360012105F0F4F820780121BDE81040CF
:102C100005F0EEB838B5C36804460D4623B100216F
:102C2000C160007805F07EF820782946BDE838407C
:102C300005F0DEB810B500210446FFF7EBFF642075
:102C400005F02CF92079002105F0D2F8BDE81040FC
:102C5000642005F023B910B500210446007905F081
:102C6000C7F8642005F01AF920460021FFF7D2FFCB
:102C7000642005F013F92079012105F0B9F86420EA
:102C800005F00CF920460121FFF7C4FFBDE8104014
:102C9000642005F003B9F8B504460E460825F70987
:102CA0002079002105F0A4F820463946FFF7B2FF4D
:102CB0000121207905F09CF8642005F0EFF820460A
:102CC0003946FFF7A7FF7600013DF6B2E7D1294666
:102CD000207905F08DF82078022105F023F80223F1
:102CE000E3602079012105F083F8FFF761FF0546D5
:102CF000207805F067F830B1FFF75AFF401B6428D1
:102D0000F6D90020F8BD0120F8BD38B50D460446BF
:102D1000FFF790FF6900204601F0FE01FFF7BBFFBF
:102D200038BD08B5FFF797FF002008BD08B5FFF7CD
:102D3000B2FF08BD70B50D466D0004461646FFF79C
:102D400079FF691CA6602046C9B2FFF7A4FF70BDD9
:102D500070B586680446002E55D00078022104F034
:102D6000E1FF0223E360082500262079002105F019
:102D70003FF80121207905F03BF8642005F08EF83A
:102D8000207805F01FF8013D00EB460000F0FF063B
:102D9000EBD1A3686068013B002BA360C0B2294659
:102DA00017DD05F025F8642005F078F8294620465F
:102DB000FFF730FF642005F071F82079012105F05C
:102DC00017F8642005F06AF82079294605F010F814
:102DD00019E005F00DF8642005F060F801212046A7
:102DE000FFF718FF642005F059F80121207904F05D
:102DF000FFFF642005F052F82079294604F0F8FF1F
:102E00002046FFF728FF304670BD002330B5054649
:102E100018468B420FDAEA5C5040082210F0010F8E
:102E20004FEA60041ABF84F0E000C0B2E0B2013A99
:102E3000F4D10133EDE730BD10B5044620680368D6
:102E4000DB68984710B905F01BF8F7E720680368BE
:102E50001B6998472C28F1D1012010BDF0B5AC4D6D
:102E6000C9B0697B00224C298DF8042008AC4FF0D2
:102E7000FE00A84B40F0DA802070D0206070272040
:102E8000A0701878A44FE07058782172207198785B
:102E9000DB786071A37107F121000223E3710292D4
:102EA000ADF80C2008F0E2FC04A9C3B201AA07F1B6
:102EB0002100FDF739FB04A808F0D8FC04A902465C
:102EC00002A8FDF7F9FA9DF8083063729DF8093001
:102ED000A3729DF80A30E3729DF80B3023739DF8BE
:102EE0000C30637397F851300BB9E82302E0012BE3
:102EF00003D1F823A3730F2600E00E260023874892
:102F00000293ADF80C3008F0B1FC04A9C3B201AAD9
:102F10008248FDF709FB04A808F0A8FC04A90246B2
:102F200002A8FDF7C9FA9DF808309DF80920A355BD
:102F3000731CE2549DF80A20B31CE2549DF80B2048
:102F4000F31CE2549DF80C20331DE25497F85230E4
:102F5000751D0BB9E72302E0012B02D1F72363555E
:102F6000B51D691CFF23C9B263556354A91CC9B2BE
:102F70006354E91CC9B2E2206054291DC9B26354EC
:102F8000691DC9B26354A91DC9B26354E91DC9B210
:102F9000E520605405F10801C9B2635405F1090147
:102FA000C9B2635405F10A010022C9B26354029206
:102FB000ADF80C2005F10B0105F10C02C9B2E320BC
:102FC000D2B260540DF10501A35438680DF1060228
:102FD0000DF10703FDF734FA9DF8052005F10D0307
:102FE000DBB2E2549DF8062005F10E03DBB238791E
:102FF000E254FDF757FA05F10F03DBB2E054387ADB
:10300000FDF750FA05F11003DBB2E054387BFDF711
:1030100049FA05F11106F6B2A055387CFDF742FADF
:1030200005F11203DBB2E054387D3AE12070D02084
:1030300060702720A0701878394FE07058784721C9
:1030400020719878DB786071A37107F10800022382
:103050006973E37121720292ADF80C2008F006FC4E
:1030600004A9C3B201AA07F10800FDF75DFA04A89C
:1030700008F0FCFB04A9024602A8FDF71DFA9DF822
:10308000083063729DF80930A3729DF80A30E3722C
:103090009DF80B3023739DF80C30637397F828303C
:1030A0000BB9E82302E0012B03D1F823A3730F2609
:1030B00000E00E2600231B480293ADF80C3008F008
:1030C000D5FB04A9C3B201AA1648FDF72DFA04A83E
:1030D00008F0CCFB04A9024602A8FDF7EDF99DF823
:1030E00008309DF80920A355731CE2549DF80A206E
:1030F000B31CE2549DF80B20F31CE2549DF80C2005
:10310000331DE25497F82930751D6BB9E7230EE0A3
:10311000A41C0020201C0020881B0020B91B0020BC
:10312000C01C0020D81C0020012B02D1F7236355BE
:10313000B51D00266A480296ADF80C6008F096FBB3
:1031400004A9C3B201AA6648FDF7EEF904A808F085
:103150008DFB04A9024602A8FDF7AEF99DF80830E0
:103160009DF8092063556B1CDBB2E2549DF80A20E0
:10317000AB1CDBB2E254EB1CDBB2E2225948E25456
:103180000296ADF80C6008F071FB04A9C3B201AA65
:103190005448FDF7C9F904A808F068FB04A90246E1
:1031A00002A8FDF789F99DF808202B1DDBB2E25437
:1031B0009DF809206B1DDBB2E2549DF80A20AB1D7F
:1031C000DBB2E254EB1DDBB2E5224748E254029643
:1031D000ADF80C6008F04AFB04A9C3B201AA42484A
:1031E000FDF7A2F904A808F041FB04A9024602A8D1
:1031F000FDF762F99DF8082005F10803DBB2E254FF
:103200009DF8092005F10903DBB2E2549DF80A207C
:1032100005F10A03DBB2E25405F10B03DBB2E32252
:10322000E25497F8882005F10C03DBB20DF105019B
:10323000E254F86A0DF106020DF107030296ADF8AB
:103240000C60FDF7FDF89DF8052005F10D03DBB2DC
:10325000E2549DF8062005F10E03DBB297F830002A
:10326000E254FDF71FF905F10F03DBB2E05497F8C4
:103270003400FDF717F905F11003DBB2E05497F8BD
:103280003800FDF70FF905F11106F6B2A05597F8D1
:103290003C00FDF707F905F11203DBB2E05497F8A3
:1032A0004000FDF7FFF805F11303DBB2E054A67010
:1032B00005F11406F6B2F11E0DF12300FFF7A5FD8E
:1032C00005F11503DBB20D22A055E25405F11602FB
:1032D0002146D2B20548FFF765FB49B0F0BD00BFFB
:1032E000101D0020241D0020381D0020A41A0020DD
:1032F000F0B5654CADB02378002B40F0C180637809
:10330000002B40F0BD80A378002B40F0B980E67818
:10331000002E40F0B5805D495D4804F029F9FE2398
:103320008DF8303002238DF83130237809218DF863
:10333000333063780DF133008DF83430A3788DF895
:1033400032108DF83530E37835468DF8363001236C
:103350008DF837304F4B1A788DF838205A788DF821
:1033600039209A78DB788DF83A208DF83B30FFF7DA
:103370004CFD0D238DF83C00474903A88DF83D30E6
:1033800004F038FA4548FEF710FE002875D0002DED
:1033900073D142480CA90E22FFF704FB4FF47A7058
:1033A00004F06EFD3D48FFF763FA002852DD002D62
:1033B00050D13A48FEF7DFFDC1B20029F2D003A890
:1033C00004F0A9FA364909A804F014FA03A809A9D7
:1033D00004F034FB074609A804F0CAF9002FE1D035
:1033E00006A82E490A2201AF04F09AF9052206A880
:1033F00039462B4604F046FB2A46BB5C402B94BF63
:10340000303B373BA3540132042AF6D1254909A8A1
:1034100004F0F0F906A909A804F0D3FA01461C4803
:1034200004F09CF809A804F0A3F9174801F026FF5E
:1034300020B11D4B00221A70012507E001F06AFF40
:10344000013613481949F6B204F092F806A804F0C0
:103450008FF9A7E7022E0BD915490D4804F088F81B
:103460000E48FFF759F903A804F082F9002008E09C
:103470004FF47A6004F004FD84E703A804F078F9BF
:1034800001202DB0F0BD00BF201C00207A290108CA
:10349000501E002014020020C2260108A41A002099
:1034A000C8290108D2290108811B0020E029010850
:1034B000F529010838B504460D460068094904F0AD
:1034C0003CF82946206804F038F82068064904F0E2
:1034D00034F8206803689B699847BDE838400020AD
:1034E00004F0CEBCD2260108C026010870B51449EC
:1034F00086B000240546FFF7DDFF009401942846BE
:103500001049114A2346FEF79AFF012818BF63208D
:1035100014D129682C2203A804F002F903A804F0AE
:10352000E2FB064603A804F023F900940194284620
:103530000649054A2346FEF782FF304606B070BDB5
:10354000192A01081E2A01081530010875290108E9
:103550002DE9F04F8DB002F0D9F8074628B11A4B8B
:103560001B68984288BF012700E0012772B64FF41C
:10357000A0611648FDF7F6F81448FDF72CF98146CE
:1035800062B61349134803F0D8FF124849460A228D
:1035900004F0A0F8DFF848800E48B9F1000F0AD017
:1035A000094B1B68994506D20B4903F0E1FF012343
:1035B00088F80E30F6E2094903F0DAFF002388F8B4
:1035C0000E304FF00109EDE218020020D01D00205E
:1035D000262A0108501E0020382A01084B2A01081B
:1035E000A41C002098F80E305BB172B64FF4A061B5
:1035F000BF48FDF7B7F83946BE4ABD48FDF7C4F8E5
:1036000062B6BD49BD48BB4E03F097FF0A2239465A
:10361000BA4804F04CF8BA49B84803F08EFF0A22C1
:103620007169B64804F010F8B649B44803F085FF54
:103630000A223169B14804F007F8B249AF4803F0F3
:103640007CFF0A22F168AD4803F0FEFFAE49AB48AB
:1036500003F073FF0A22B168A84803F0F5FFAB49F5
:10366000A64803F06AFF0A227168A44803F0ECFF41
:10367000A649A24803F061FF31680A229F4803F07F
:10368000ECFFA348FEF791FC0446002800F071838C
:1036900098F80C30012B09D19E49984803F068FF37
:1036A000FFF7DCFB4FF47A7004F0EAFB9A49934889
:1036B00003F05EFF994C0021142207A8069107F041
:1036C00071FCFE232370964B964D1A78B06D627094
:1036D0005A78A2709A78DB78E270237106232B70F7
:1036E0004FF6FE7308229842627140F25F82814B6E
:1036F00093F85C30012B00F05982FF23A3712A70EC
:10370000E37196F85C30D6F854A0012B2B78504624
:1037100003F101022A700CBFF222E222E2540023DC
:10372000069306F003FD4FF6FE73984240F35B826A
:103730002B78FF22991CE25401332970DBB295F8F3
:1037400000A0E254E2220AF10103DBB204F80A20ED
:103750000021142207A82B700691019307F022FC88
:10376000326E7149DFF8BCB18A426C4D019B40F268
:103770004B82FF22EA540AF10203DBB2EA540AF157
:103780000303DBB2EA540AF105030AF1040A5FFA03
:103790008AFA8BF8003005F80A20624C5F4D2378D6
:1037A0004FF0000A5A1C2270E022EA5451461422BB
:1037B00007A8CDF818A007F0F5FB5C49726E07A8C2
:1037C00007F038FE07A808F051F807A9024606A836
:1037D000FCF772FE22789DF818309DF81910AB5452
:1037E000531CDBB2E9549DF81A10931CDBB2E95468
:1037F0009DF81B10D31CDBB2E954131DDBB2E22091
:10380000E854306F511D4FF6FE73C9B298422170D3
:10381000CDF818A040F31C82FF236B54D11D063253
:10382000D2B22170AB542378E021E9545A1CB16F15
:10383000D2B22270084602910392019306F09CFCDA
:103840004FF6FE7E7045DFF8DCB0DFF8D0A00299BD
:10385000039A019B40F22882FF210AF80210DA1C29
:103860000233DBB28BF800200AF803102378E12240
:10387000F06F591CEA544FF6FE72C9B29042DFF85D
:10388000A4B02170DFF894A040F22382FF220AF84E
:103890000120D91C02338BF80010DBB2F06E0AF85D
:1038A00003204FF6FE73984240F229822378FF22CC
:1038B000991CEA5401332170DBB2EA542378E022E8
:1038C000706F591CEA544FF6FE72C9B29042DFF88D
:1038D00054B02170DFF844A040F22482FF220AF89D
:1038E0000120D91C02338BF80010DBB220E000BFAE
:1038F000D01D0020D8190020622A0108501E002087
:10390000752A0108BE2501088C2F0108892A0108A3
:10391000A41A00208B2A0108A42A0108241C0020D4
:10392000201C0020801B0020400D0300CE2A01082F
:103930000AF8032023780B205A1C2270E022EA5454
:10394000FDF722FC0DF115010DF116020DF1170323
:10395000FCF776FD23789DF81520C748EA549A1C99
:10396000227001339DF81620DBB2EA54FFF7BEFD4A
:103970000DF115010DF116020DF11703FCF760FDB5
:1039800023789DF815200DF11501EA549A1C227038
:1039900001339DF81620DBB2EA5470690DF116026E
:1039A0000DF11703FCF74CFD94F800A09DF81530BD
:1039B0009DF8162005F80A300AF10103DBB2EA543B
:1039C000307C0AF103032370FCF76CFD0AF1020A54
:1039D0005FFA8AFA05F80A0094F800A0307B0AF131
:1039E00001032370FCF75EFD05F80A0094F800A0BF
:1039F000307A0AF101032370FCF754FD05F80A0040
:103A000094F800A030790AF101032370FCF74AFD15
:103A100005F80A0094F800A030780AF10103237039
:103A2000FCF740FD217805F80A0003399348A97096
:103A3000FFF7EBF923780D21E8549A1C0133DBB230
:103A4000E954D2B28E498F482270FEF7ABFF4FF493
:103A50007A708D4D04F014FA8C498D4803F088FD7E
:103A6000FE232B70C1236B701823AB70894B8A4CDB
:103A70001A78EA705A782A719A78DB786A71AB7191
:103A80000722864B227007AA1046196807F090FE9D
:103A900000230246AE46D15CA1F13000C0B2092835
:103AA0008ABF5739D054D1540133142BF3D1237822
:103AB0004FF0000A02EB0A0003EB0A01C0790AF199
:103AC000010AC9B2BAF10D0F6F4D0EF80100F1D124
:103AD0000D330DF11601237070690DF1170206AB5D
:103AE000FCF7AEFC94F800B09DF816309DF8172056
:103AF00005F80B300BF10103DBB2EA54307C0BF11B
:103B000003032370FCF7CEFC0BF1020B5FFA8BFB77
:103B100005F80B0094F800B0307B0BF10103237023
:103B2000FCF7C0FC05F80B0094F800B0307A0BF1FC
:103B300001032370FCF7B6FC05F80B0094F800B005
:103B400030790BF101032370FCF7ACFC05F80B0096
:103B500094F800B030780BF101032370FCF7A2FC5D
:103B6000217805F80B000339E81CA970FFF74DF91F
:103B700023782946E8549A1C0133DBB2D2B241487B
:103B800005F803A022700137FEF70CFF4FF47A709E
:103B900004F076F9384601F0A7FD98F80E30002BB6
:103BA00000F0D6804F457FF61DADD1E096F85C3031
:103BB000012B08BFC0F5803006F010F9384906F037
:103BC00019FA04220146022306A8FCF7D3FC2B783D
:103BD0009DF81820E2549A1C2A7001339DF8192090
:103BE000DBB2E2548DE50422022306A85146FCF71D
:103BF000C1FC2B789DF81820E2549A1C01332A70DE
:103C0000DBB29DF819209AE5264907A807F012FCB7
:103C100007A807F02BFE07A9024606A8FCF74CFCF4
:103C20009BF800309DF818209DF81910EA545A1C92
:103C3000D2B2A9549A1C9DF81A10D2B2A9541A1DD6
:103C40008BF8002003339DF81B20DBB2EA54A4E577
:103C500006F0C4F804220146534606A8FCF78AFC85
:103C600023789DF81820EA549A1C227001339DF89D
:103C70001920DBB2EA54D6E54C1B0020271C00209B
:103C8000241C0020A41A0020501D0020D42A010862
:103C9000501E0020201C0020101C0020141C00209E
:103CA00000002041CE2A01080422012306A8FCF7C7
:103CB00061FC9BF800309DF818200AF803209A1C3C
:103CC0008BF8002001339DF81920DBB20AF803209D
:103CD000CCE506F083F804220146002306A8FCF791
:103CE00049FC9BF800309DF818200AF803209A1C24
:103CF00001338BF80020DBB29DF81920CEE506F0E9
:103D00006DF804220146002306A8FCF733FC237853
:103D10009DF81820EA549A1C01332270DBB29DF8FA
:103D20001920CAE506F05AF804220146002306A825
:103D3000FCF720FC9BF800309DF818200AF80320BF
:103D40009A1C01338BF80020DBB29DF81920EFE5B7
:103D500072B698F80E308BB1FDF70EFA4FF4A061F1
:103D60001648FCF7FFFC1548FCF737FDFDF708FA8D
:103D700004E01348FEF7D0FC20461BE0114801F098
:103D800016FDD8F804304AF684023C3B93420146C3
:103D900002D90D4BB4225A60D8F8043009481944AE
:103DA00001F012FD62B6012001F09EFC0448FEF70E
:103DB000B3FC01200DB0BDE8F08F00BFD01D002086
:103DC000A41A0020C8190020A41C002008B50E4821
:103DD0000E4903F0CDFB0E48FEF7E7F818B1BDE839
:103DE0000840FFF7B5BB08480A4903F0C1FB0A4B7E
:103DF0001B7C1BB901F090FB01F0F4FB0448FEF7BB
:103E00008BFC002008BD00BF501E0020F32A0108D3
:103E1000A41A0020222B0108A41C002030B5504D0C
:103E20008DB02846FFF762FB01210446192003F0FC
:103E3000DFFF1820002103F0DBFF4A494A4803F066
:103E400097FB4A49484803F078FB21460A22464836
:103E500003F003FC002428464549FFF72BFB0094A0
:103E6000019428464349444A2346FEF7E8FA0128CC
:103E700004D003A8414903F0BDFC16E009A8296855
:103E80000A2203F04DFC3E493B4A2346009401942C
:103E90002846FEF7D4FA09A803F0FBFE03A809A9F7
:103EA00003F057FC09A803F063FC364909A803F0A6
:103EB000A1FC03A909A803F084FD294D01462A4865
:103EC00003F04CFB09A803F053FC002428462E49BC
:103ED000FFF7F0FA0094019428462C49264A23461D
:103EE000FEF7ADFA012804D006A8244903F082FCAD
:103EF00016E009A829680A2203F012FC20491E4A8C
:103F00002346009401942846FEF799FA09A803F085
:103F1000C0FE06A809A903F01CFC09A803F028FCB0
:103F200006A91B4803F0B3FC06A803F021FC09A86E
:103F3000184903F05FFC09A8154903F042FD01464A
:103F4000094803F00BFB09A803F012FC0B490648D3
:103F500003F00EFB03A803F00BFC0DB030BD00BF57
:103F60004C1B00204E2B0108501E00207C2B01080A
:103F7000822B0108C026010815300108C22601085D
:103F800075290108872B01088D2B0108942B010846
:103F9000141C00209E2B010830B5304985B0002448
:103FA0000546FFF787FA0094019428462C492D4ACC
:103FB0002346FEF744FA012801D001204BE02846B1
:103FC0002949FFF777FA274A2346284900940194A4
:103FD0002846FEF734FA28462549FFF76BFA009485
:103FE0000194029428462349234A1E4BFEF794F974
:103FF000012802D0214822492AE01C4A194B4FF4DB
:104000007A710094019402942846FEF785F92846B7
:104010001C49FFF74FFA0094019428461A49114AA7
:104020002346FEF70CFA012802D0144817490FE086
:1040300028461749FFF73EFA00940194284615498F
:10404000084A2346FEF7FBF90128B6D00B4812496F
:1040500003F08EFA204605B030BD00BFA72B010843
:10406000AE2B010815300108B72B0108752901088E
:10407000D32B0108084C0100DE2B0108501E002044
:10408000E82B0108082C0108152C0108262C010832
:104090003F2C01084C2C01085D2C0108F0B5A7B09D
:1040A00007A8934903F0A6FB9248FDF77EFF00287E
:1040B00000F04A83904D6B7C002B40F045838D4887
:1040C000FEF7D6FB0028EFDD6E7C002EECD1894890
:1040D000FDF751FFC1B20029F1D007A803F01BFC86
:1040E000864919A803F086FB07A819A903F0A6FCC6
:1040F000044619A803F03CFB002CE0D00A220AA8D1
:104100007C4903F00DFB7A490DA803F073FB0B22E9
:10411000314604A806F046FF794919A803F06AFB66
:104120000AA919A803F04DFC0146764803F016FAD7
:1041300019A803F01DFB744916A803F05BFB16A930
:104140000AA803F0D4FC324603460AA919A803F0D2
:10415000F5FC19A90DA803F09AFB19A803F008FBB8
:1041600016A803F005FB0DA804A90B22334603F0A3
:1041700089FC9DF810309DF81300303BC3EB4311D0
:1041800003EB81039DF811109DF81220303930386F
:1041900001EB810100EBC30301EB8101303A5B4C81
:1041A00003EB810102EB820201EB42029DF8153024
:1041B000E2809DF81620303B303A03EB830302EB9C
:1041C000430363719DF818309DF81920303B303A55
:1041D00003EB830302EB430331460B2204A8237154
:1041E00006F0E0FE4A4919A803F004FB0DA919A83E
:1041F00003F0E7FB0146434803F0B0F919A803F0C8
:10420000B7FA414916A803F0F5FA16A90AA803F06F
:104210006EFC0C9B421C0AA919A803F08FFC19A97B
:104220000AA803F034FB19A803F0A2FA16A803F0B9
:104230009FFA354916A803F0DDFA16A90AA803F07B
:1042400056FC324603460AA919A803F077FC19A9BF
:104250000DA803F01CFB19A803F08AFA16A803F0B6
:1042600087FA0B2233460DA804A903F00BFC294959
:1042700019A803F0BFFA0DA919A803F0A2FB014683
:10428000204803F06BF919A803F072FA9DF810307A
:104290009DF81120303B303A03EB830302EB4303DC
:1042A000A3709DF813309DF81420303B303A03EB97
:1042B000830302EB430363709DF816309DF81720CB
:1042C000303B303A03EB830302EB43032046237079
:1042D000FBF7F4FF0146104801F066FAA3780F2BB4
:1042E0001CD163783B2B19D8034B01221A7317E0BA
:1042F000C2260108A41A0020A41C0020862C010854
:104300008E2C0108501E0020E6260108CA19002044
:10431000A12C0108B72C0108C819002000232B7319
:10432000994801F044FA01469848FBF73BFF217990
:10433000E28863790091A17819A8019161780291CE
:1043400021780391924907F075F819A9914803F073
:104350000FF9914913A803F04DFA13A90AA803F025
:10436000C6FB0C9B421C0AA916A803F0E7FB16A982
:104370000AA803F08CFA16A803F0FAF913A803F0C0
:10438000F7F9854913A803F035FA13A90AA803F031
:10439000AEFB002203460AA916A803F0CFFB16A91C
:1043A0000DA803F074FA16A803F0E2F913A803F0BD
:1043B000DFF90DA803F097FC7849286016A803F0F0
:1043C00019FA0DA916A803F0FCFA0146714803F08A
:1043D000C5F816A803F0CCF92B684AF684023C3BDA
:1043E000934202D96E4BB4221A606B4913A803F0B2
:1043F00001FA13A90AA803F07AFB0C9B421C0AA934
:1044000016A803F09BFB16A90AA803F040FA16A809
:1044100003F0AEF913A803F0ABF95F4913A803F05A
:10442000E9F913A90AA803F062FB002203460AA9CE
:1044300016A803F083FB16A90DA803F028FA16A806
:1044400003F096F913A803F093F90DA803F04BFCC1
:104450005449686016A803F0CDF90DA916A803F019
:10446000B0FA01464B4803F079F816A803F080F93A
:104470006B684AF684023C3B934202D9484BB42213
:104480005A60454913A803F0B5F913A90AA803F027
:104490002EFB0C9B421C0AA916A803F04FFB16A981
:1044A0000AA803F0F4F916A803F062F913A803F0C0
:1044B0005FF9394913A803F09DF913A90AA803F07D
:1044C00016FB002203460AA916A803F037FB16A91B
:1044D0000DA803F0DCF916A803F04AF913A803F0BD
:1044E00047F90DA803F0FFFB2F49A86016A803F0B9
:1044F00081F90DA916A803F064FA0146254803F0D6
:104500002DF816A803F034F9234913A803F072F923
:1045100013A90AA803F0EBFA0C9B421C0AA916A8DF
:1045200003F00CFB16A90AA803F0B1F916A803F0D2
:104530001FF913A803F01CF900210AA803F094FA4C
:1045400003781A4916A86B7303F054F90AA916A840
:1045500003F037FA01460F4803F000F816A803F0FD
:1045600007F92E7B0E4C012E40F0DC80E37B3BBB39
:104570000F48FFF711FD07460648EFB10D4902F05D
:10458000F7FFE6731CE000BFC8190020CA1900201D
:10459000CD2C0108501E0020E6260108F32C01084E
:1045A000A41C0020062D0108162D0108212D01084C
:1045B0004C1B00202C2D0108664902F0D9FFE7733F
:1045C000EB7B002B00F0AE80634B5B7B4C2B55D11B
:1045D000624E634910A803F00DF90024304661498A
:1045E000FEF768FF00940194029430465E495F4AEA
:1045F0005F4BFDF791FE012804D013A8584903F042
:10460000F9F816E016A831680A2203F089F859492A
:10461000574A2346009401943046FDF710FF16A830
:1046200003F037FB13A816A903F093F816A803F0BC
:104630009FF813A910A803F02AF913A803F098F81B
:104640004D4916A803F0D6F810A916A803F0B9F939
:1046500001464A4802F082FF16A803F089F80023B9
:1046600010A916A8EB7303F008F916A84449FCF743
:104670001FF916A803F07CF810A851E0472B51D180
:10468000364E40493046FEF715FF0024642003F003
:10469000F7FB0094019430463B49354A2346FDF729
:1046A000CEFE012808D03949344802F061FF13A832
:1046B0002B4903F09FF816E016A831680A2203F090
:1046C0002FF82C492A4A2346009401943046FDF7DE
:1046D000B6FE16A803F0DDFA13A816A903F039F800
:1046E00016A803F045F82A4916A803F083F813A981
:1046F00016A803F066F90146204802F02FFF16A81D
:1047000003F036F813A916A803F0B7F8214916A844
:10471000FCF77CFA16A803F02BF80023EB7313A820
:1047200003F026F80E49154802F022FF00F0B8FE0B
:1047300008B100F0B1FF01230DA86B7403F018F865
:104740000AA803F015F8BAE407A803F011F827B097
:10475000F0BD00BF3C2D0108A41C00204C1B002014
:10476000C22601084E2D0108084C0100582D0108F1
:104770001530010875290108612D0108501E00201F
:10478000881B00206B2D0108742D0108802D010865
:10479000972D0108C01C002070B55749A0B057489C
:1047A00002F0CBFE564C5749544802F0C6FE56491B
:1047B000524802F0C2FE21680A22504802F04DFF22
:1047C0002588524C0026002003F05AFB2A46C4F8E4
:1047D000A460C4F8A06020694A49237DFDF7BCFDB0
:1047E000801B18BF01202077494D60B943484949D3
:1047F00002F0BEFE2B7C1BB900F08EFE00F0F2FE34
:1048000001F080FF75E044493C4802F0B1FE4349A5
:104810003A4802F0ADFE424C1920314603F0E8FA66
:104820001820012103F0E4FA2046294600F098FE02
:10483000FEF75EFD00285CD0FE23092620468DF899
:1048400000302946C0238DF801308DF8026000F059
:1048500087FE237831468DF8033063780DF103002D
:104860008DF80430A3788DF80530E3788DF80630A4
:1048700007238DF807302B4B1A788DF808205A78CB
:104880008DF809209A78DB788DF80A208DF80B30A6
:10489000FEF7BBFA0D238DF80D30234B8DF80C007D
:1048A0001C681E461948FDF780FB48B169460E2278
:1048B0001648FEF777F84FF47A7003F0E1FA0EE04D
:1048C0000E481A4902F054FE2B7C1BB900F024FE5E
:1048D00000F088FE0D48FDF71FFF01F013FFFFF702
:1048E000DDFB6B7C2BB9326843F69723121B9A428F
:1048F000D8D920B070BD00BFA12D0108501E0020E6
:1049000010020020682901087C240108A41A002054
:10491000A41C0020B02D0108F22D0108C2260108B8
:10492000201C002014020020AC1F0020072E0108CC
:104930002DE9FF41134B05461F680E469846D8F8EF
:1049400000300024DB1BB34217D228460E49FEF785
:10495000B1FD0094019402942846C8210B4A0C4BE7
:10496000FDF7DAFC0446012C4FF0640002D103F09D
:1049700087FA02E003F084FAE1E7204604B0BDE8DC
:10498000F08100BFAC1F0020C22601087529010874
:10499000153001081F4B2DE9F3411F6805460E46EF
:1049A0009846D8F80030DB1BB3422CD200242846AE
:1049B0001949FEF77FFD0094019428461749184ACB
:1049C0002346FDF73CFD012804D04FF47A7003F034
:1049D00057FAE6E7134B14498DE81800134A144BB5
:1049E0002846FDF72CFD00940646019428461149FF
:1049F0000B4A2346FDF723FD012E06D003D3032ED9
:104A000001D8022002E0002000E0304602B0BDE8FC
:104A1000F08100BFAC1F0020452E01084C2E01087C
:104A2000153001086B2E0108552E01085B2E010878
:104A3000632E0108752901087FB542F21071054601
:104A4000FFF776FF58B3002428462149FEF732FDD0
:104A5000009401940294284642F210711D4A1E4BA4
:104A6000FDF75AFC01281AD128461C49FEF722FD01
:104A7000009401940294284642F21071154A164B94
:104A8000FDF74AFC01280AD140F6B83003F0F8F9E6
:104A9000284642F21071FFF74BFF064608B9002680
:104AA00012E028460E49FEF705FD009401942846C1
:104AB0000849094A2346FDF7C2FC0128EFD12846E0
:104AC00042F21071FFF766FF304604B070BD00BFC0
:104AD000782E01087529010815300108802E01087B
:104AE0008A2E010870B5164986B000240546FEF7E7
:104AF000E1FC0094019428461249134A2346FDF72D
:104B00009EFC012818BF042017D12846FEF794F90F
:104B100029680A2203A802F003FE03A803F0E3F8C1
:104B2000064603A802F024FE009401942846074993
:104B3000054A2346FDF783FCF0B206B070BD00BF06
:104B4000A72B0108AE2B01081530010875290108B3
:104B5000F8B504460D4600680E4916461F4602F099
:104B6000ECFC2946206802F0E8FC3146206802F09F
:104B7000E4FC3946206802F0DBFC2068064902F0BC
:104B8000DCFC206803689B699847BDE8F84000207A
:104B900003F076B9D2260108C02601082DE9F043BA
:104BA00000258FB004468946984990461F46FEF777
:104BB00081FC974A974B4EF660210095019502952E
:104BC0002046FDF7A9FB20469349FEF773FC904968
:104BD000904A2B46009501952046FDF730FC204673
:104BE0008E494A462223FFF7B3FF009501952046E0
:104BF0008749884A2B46FDF722FCB8F1000F0DD0FB
:104C00002046874942462223FFF7A2FF00950195DF
:104C100020467F497F4A2B46FDF711FC6FB12046A5
:104C200080493A462223FFF793FF00230093019324
:104C300020467749774AFDF702FC764E002520464C
:104C400079494A462223FFF783FF32462B467049B3
:104C5000009501952046FDF7F2FB20467349FEF7CB
:104C600029FC6B4A33464EF660210095019502956A
:104C70002046FDF751FB20466D49FEF71BFC644AB8
:104C800033466C490095019502952046FDF744FB9B
:104C900020466949FEF70EFC0095019502952046D5
:104CA00047F230515A4A3346FDF736FB012801D00E
:104CB0000025EDE020466149FEF7FCFB00950195DB
:104CC000029520464EF66021514A3346FDF724FBFB
:104CD0000128EDD120465A49FEF7ECFB00950195DD
:104CE00020464B4932462B46FDF7A9FB0128DFD170
:104CF00020465449FEF7DEFB0095019520464449C5
:104D000032462B46FDF79BFB0128D1D120464E4968
:104D1000FEF7D0FB0095019520463D4932462B46D3
:104D2000FDF78DFB0128C3D14849206802F005FC3E
:104D30004749206802F001FC4946206802F0FDFB6B
:104D40004449206802F0F9FB4146206802F0F5FB77
:104D50004049206802F0F1FB3946206802F0EDFB83
:104D60003D49206802F0E9FB3C49206802F0E5FB80
:104D7000206803689B699847284603F081F80095EE
:104D80000195029520464EF66021214A3346FDF7F3
:104D9000C3FA01288CD120463149FEF78BFB0095E0
:104DA0000195029520464EF66021194A3346FDF7DB
:104DB000B3FA01287FF47CAF20462A49FEF77AFB3C
:104DC000294905A802F016FD009601950295039564
:104DD000204642F2107105AA0D4BFDF763F9012838
:104DE00044D008A81D4902F005FD0BA81E4902F099
:104DF00001FD05A808A90BAA02F0C6FE0BA802F047
:104E0000B7FC08A802F0B4FC3FE000BF902E0108F8
:104E10007529010815300108B72B0108992E0108E2
:104E2000AC2E0108C02E0108D32E0108E52E010882
:104E3000F02E0108084C0100D32B0108FB2E0108BD
:104E4000042F01080E2F01081A2F0108D22601088D
:104E5000262F0108CF2E0108D12E0108C0260108F7
:104E60002E2F0108352F0108C226010820460A49C5
:104E7000FEF720FB2B460095019520460749324658
:104E8000FDF7DDFA431E5D425D4105A802F070FCAE
:104E900028460FB0BDE8F0833F2F010875290108AF
:104EA00038B52F492F4802F063FB642002F0E8FF79
:104EB0000121052002F09CFF642002F0E1FF182090
:104EC000012102F095FFFCF7DBF90021182002F028
:104ED0008FFF2548FFF7B0FD2449224802F02DFB43
:104EE000642002F0CDFF224B1C681D462A684EF656
:104EF0006023121B9A420BD21B48FFF7F3FD00F010
:104F0000FB00012811D04FF47A7002F0B9FFEDE7F1
:104F10001448184902F02CFB174B1B7C1BB900F0FE
:104F2000FBFA00F05FFB002418E014490D4802F082
:104F30001FFB13490B4802F000FB1249094802F01D
:104F400017FB09480F49104A104BFFF727FE04468C
:104F500010B904480E49DDE7FEF760FF204638BD72
:104F60005C2F0108501E00204C1B0020762F0108EA
:104F7000AC1F0020D42F0108A41C00201130010810
:104F8000A12D010862290108143001081D30010813
:104F90008F2F010837B50024224621462346114DA4
:104FA0000094114802F084FA104B284610491C6006
:104FB0005C609C601C739C73DC731C745C7402F0FA
:104FC00019FC28460B490C4A03F076F80B4B83F882
:104FD000514083F852400A4B83F8284083F8294017
:104FE00003B030BD141C0020781B0020A41C00203E
:104FF000C22601087177000808000020881B0020E5
:10500000C01C0020FBF7CEB9FBF7EEB970B5044623
:1050100001F066F80A2002F033FF00214D1CE8B2CF
:10502000615C01F06AF8042D2946F7D12046FDF7AE
:10503000ECFE0146052001F060F800235D1CE8B29B
:10504000E65C01F053F8864204D1042D2B46F5D1DD
:10505000012070BD002070BD70B5054601F040F81C
:105060000A2002F00DFF002404F10B00295DC0B2FC
:10507000013401F042F8042CF6D121462846FDF710
:10508000C4FE01460F2001F038F8002404F10B00A3
:10509000C0B22E5D01F02AF8864204D10134042CFE
:1050A000F4D1012070BD002070BD70B5044600250C
:1050B0006E1CF0B201F01AF8042E60553546F7D197
:1050C000052001F013F8294606462046FDF79DFE0F
:1050D000F6B286420CD1237843B9637833B9A3780A
:1050E00023B9E078003018BF012070BD012070BDE9
:1050F000002070BD70B50546002404F10B00C0B25D
:1051000000F0F4FF28550134042CF6D10F2000F0F4
:10511000EDFF214606462846FDF777FEF6B28642A9
:105120000DD1084B1A7842B95A7832B99A7822B917
:10513000D878003018BF012070BD012070BD00205C
:1051400070BD00BF201C002070B50546FCF714F8A8
:1051500008242B19204613F8081C0134FBF722F908
:105160000C2CF6D104212846FDF74FFE01462046BF
:10517000FBF718F9FCF704F808242B19204613F85C
:10518000086CFBF731F9864204D101340C2CF4D1C0
:10519000012070BD002070BD70B50546FBF7ECFF27
:1051A00010242B19204613F8101C0134FBF7FAF8D1
:1051B000142CF6D104212846FDF727FE014620468F
:1051C000FBF7F0F8FBF7DCFF10242B19204613F84F
:1051D000106CFBF709F9864204D10134142CF4D188
:1051E000012070BD002070BD38B504460825284652
:1051F000FBF7FAF8631901350C2D03F8080CF6D10A
:105200002846FBF7F1F8042105462046FDF7FDFD91
:1052100085420CD1237843B9637833B9A37823B995
:10522000E078003018BF012038BD012038BD0020D3
:1052300038BD38B5044610252846FBF7D5F8631964
:105240000135142D03F8100CF6D12846FBF7CCF8E5
:10525000042105462046FDF7D8FD85420CD1237870
:1052600043B9637833B9A37823B9E078003018BF25
:10527000012038BD012038BD002038BD70B505467D
:1052800003262846FFF7C2FE40B11D491D4802F023
:105290006FF9642002F0F4FD012400E00446284682
:1052A000FFF752FF40B11849164802F061F9642037
:1052B00002F0E6FD0134E4B22846FFF7CDFE40B12E
:1052C0001249104802F054F9642002F0D9FD01346B
:1052D000E4B22846FFF760FF40B10D49094802F0EB
:1052E00047F9642002F0CCFD0134E4B2012C05D86A
:1052F000013E16F0FF06C4D1304670BD012070BDDE
:105300001E300108501E00202D3001083B300108DE
:105310004E30010838B500F0E3FEFBF72DFFFBF738
:105320002BFF0824E5B2E81FC0B2002100F0E5FE23
:10533000E81CC0B2002100F0E0FE20460021FBF78F
:1053400031F804F1080000210134FBF72BF80C2C94
:10535000E8D1FBF715FFBDE83840FBF711BF0000AF
:1053600038B50446FFF7C6FE88B12046FFF79DFE1C
:1053700068B12046FFF738FF48B12046FFF759FFD4
:10538000054620B13D493E4802F0F2F82CE02046A7
:10539000FFF7B0FE20B12046FFF787FE054698B91B
:1053A0002046FFF721FF18B32046FFF742FF0546CE
:1053B000F0B13449324802F0DBF82046FFF726FE10
:1053C0002046FFF749FE0FE02F492D4802F0D0F8A4
:1053D0002046FFF7B9FE2046FFF7DEFE04E02B492A
:1053E00002F0C6F8FFF796FF642002F049FD43E0A3
:1053F0002046FFF75AFE38B12549214802F0B8F897
:105400002046FFF729FE0AE02046FFF773FE50B161
:105410001B48204902F0ACF82046FFF7F7FD204674
:10542000FFF792FE0DE02046FFF7DEFE68B11A4955
:10543000134802F09DF82046FFF7E8FD2046FFF7ED
:105440000BFE2046FFF7A8FE12E02046FFF7F1FE14
:1054500005460B48002DC2D0104902F089F82046BD
:10546000FFF7D4FD2046FFF7F7FD2046FFF76CFE5F
:10547000642002F005FD0125284638BDDE30010814
:10548000501E002028310108ED300108CC30010801
:10549000603001087630010893300108AC30010813
:1054A0002DE9F04172B63C20FAF79EFF4FEA002842
:1054B0003D20FAF799FF48EA00084020FAF794FFE8
:1054C00007464120FAF790FF06464420FAF78CFF82
:1054D00005464520FAF788FF04465020FAF784FF76
:1054E0000C4B1A6890450CD15A6846EA072696423A
:1054F00007D19A6844EA0524944202D11B7B834277
:1055000003D062B60120BDE8F08162B60020BDE89C
:10551000F08100BFA41C002008B572B6FBF72CFE7A
:105520000C484FF4A061FBF71DF90A48FBF753F94B
:1055300058B90949094802F01BF806484FF4A06120
:1055400043F26002A023FBF7FBF8FBF719FE62B6FB
:1055500008BD00BFD01D00206B310108501E002087
:105560001F4B10B51B780C46002B32D172B6402071
:10557000FAF73AFF000260604120FAF735FF6368EE
:10558000184360603C20FAF72FFF000220603D20A6
:10559000FAF72AFF2368184320604C20FAF724FF0B
:1055A000000260614D20FAF71FFF636918436061D4
:1055B0005020FAF719FF20734420FAF715FF000274
:1055C000A0604520FAF710FFA3681843A06062B6F8
:1055D00010BD0023037043708370C370C6E700BF23
:1055E000811B002038B52349234801F0A6FF234B37
:1055F0000A221968204802F05AF872B6FBF7BCFD7F
:105600004FF4A0611E48FBF7ADF81D48FBF7E3F827
:105610001C490446184801F090FF0A22164821460A
:1056200002F058F8154B1A681D46944202D31448EC
:10563000FBF7D3F82B689C42134C15D21048134942
:10564000FBF7B2F828B90C48114901F091FF01238A
:105650000BE01049084801F08BFF00230848A373B2
:10566000FBF7BBF862B601E00023A373FBF788FDEC
:1056700062B638BD8B310108501E00201802002090
:10568000D01D00209F310108A41C0020D819002043
:10569000B2310108CD31010810B572B6114CFBF7DB
:1056A0006BFD61783C20FAF77DFE21783D20FAF70A
:1056B00079FE61794020FAF775FE21794120FAF7E9
:1056C00071FE217B5020FAF76DFE617A4420FAF7D3
:1056D00069FE4520217AFAF765FEFBF751FD62B6B7
:1056E00010BD00BFA41C002010B5044672B6FBF725
:1056F00043FDC4F307214C20FAF754FE4D20E1B2DC
:10570000FAF750FEFBF73CFD62B610BD10B572B65D
:105710004C20FAF769FE04024D20FAF765FE62B6E6
:10572000204310BD02480349034AFBF706B800BFF7
:10573000D01D0020055000080950000810B504468F
:105740002CB14FF47A7002F0A9FB013CF8E710BDD0
:10575000122938B50546144608460BD0132910D037
:10576000112916D100F080F80CB120460FE047F661
:10577000FF700CE000F078F8002CF6D149F63F40BD
:1057800005E000F071F8002CEFD14FF2234000F05B
:105790006FF9284638BD13B50022044601A8FFF76B
:1057A000D7FF204602B010BD084600F047B900F010
:1057B00033B910B510460C4600F074F921460320A9
:1057C000BDE8104000F0A6B8084600F06BB9000034
:1057D000054B1B681B685B0103F1844394331A6813
:1057E000002AFCD0704700BF1C020020054B1B683C
:1057F0001B685B0103F184438C331A68002AFCD0D8
:10580000704700BF1C02002008B5FFF7E1FF054B01
:1058100000221B681B685B0103F18443C3F88C20E2
:1058200008BD00BF1C02002008B5FFF7D1FF054BE3
:1058300001221B681B685B0103F18443C3F89020BD
:1058400008BD00BF1C02002008B5FFF7C1FF054BD3
:1058500000221B681B685B0103F18443C3F890209E
:1058600008BD00BF1C02002010B5044600F02CFC4F
:1058700000F036FC204A112C136A23F440731362A3
:1058800013460BD005D8C4B1102C2AD100231362C3
:1058900027E0122C11D0132C1AD022E0174A002135
:1058A0001160012142F8081C154A126812F0FF0F1E
:1058B000FAD01A6A42F4807212E0124A0121116091
:1058C000114A1268002AFBD01A6A42F4007207E0FB
:1058D0000E4A126812F0FF0FFAD01A6A42F44072B0
:1058E0001A620B4B01221A60FFF78EFFFFF77EFF53
:1058F000BDE81040FFF76CBF0010024008044242B0
:10590000040442428004424284044242440042422F
:105910003C04424238B5144D04462B6803EB800327
:105920005960FFF755FF032C09D1104A012313607A
:10593000C2F800310E4B4FF400725A6038BD2B682C
:1059400001221B68944204EBC3034FEA830303F173
:1059500084431A6003D002D3022C00D038BD044B1C
:1059600008221A6038BD00BF1C020020448020427B
:1059700000E100E010B50446FFF72AFF032C0B4BB3
:1059800005D10B4900220A60C1F8002108E01A681D
:105990000021126804EBC202920002F184421160FD
:1059A0001B6803EB84040023636010BD1C0200200D
:1059B00044802042F8B5104B1E6835682B686F682C
:1059C0001F4017F0010403D074680CB1A0470124F4
:1059D000BA0704D5B36813B1984744F002047B07B3
:1059E00004D5F36813B1984744F004046B6823EAC4
:1059F00004046C60F8BD00BF1C02002008B5044B15
:105A00001B681B691BB19847024B01221A6008BD35
:105A10001C020020C482204208B5FFF7F5FEFFF704
:105A2000E5FEFFF7D5FE044B1B681B689869DB6930
:105A30009BB243EA004008BD1C02002010B504469A
:105A4000FFF7E2FEFFF7D2FEFFF7C2FEFFF7ECFE24
:105A5000064B220C1B68A4B21B689A61DC61FFF73D
:105A6000F3FEBDE81040FFF7B3BE00BF1C020020EC
:105A700010B50446FFF7C8FEFFF7B8FEFFF7A8FE13
:105A8000FFF7D2FE064B220C1B68A4B21B689A607B
:105A9000DC60FFF7D9FEBDE81040FFF799BE00BFFC
:105AA0001C02002010B50446FFF7AEFEFFF79EFE75
:105AB000FFF78EFEFFF7B8FE064B220C1B68A4B260
:105AC0001B681A625C62FFF7BFFEBDE81040FFF77B
:105AD0007FBE00BF1C02002008B5036801211B68BF
